{"abi":[{"type":"constructor","inputs":[{"name":"_token","type":"address","internalType":"address"},{"name":"_lzEndpoint","type":"address","internalType":"address"},{"name":"_delegate","type":"address","internalType":"address"}],"stateMutability":"nonpayable"},{"type":"function","name":"SEND","inputs":[],"outputs":[{"name":"","type":"uint16","internalType":"uint16"}],"stateMutability":"view"},{"type":"function","name":"SEND_AND_COMPOSE","inputs":[],"outputs":[{"name":"","type":"uint16","internalType":"uint16"}],"stateMutability":"view"},{"type":"function","name":"allowInitializePath","inputs":[{"name":"origin","type":"tuple","internalType":"struct Origin","components":[{"name":"srcEid","type":"uint32","internalType":"uint32"},{"name":"sender","type":"bytes32","internalType":"bytes32"},{"name":"nonce","type":"uint64","internalType":"uint64"}]}],"outputs":[{"name":"","type":"bool","internalType":"bool"}],"stateMutability":"view"},{"type":"function","name":"approvalRequired","inputs":[],"outputs":[{"name":"","type":"bool","internalType":"bool"}],"stateMutability":"pure"},{"type":"function","name":"combineOptions","inputs":[{"name":"_eid","type":"uint32","internalType":"uint32"},{"name":"_msgType","type":"uint16","internalType":"uint16"},{"name":"_extraOptions","type":"bytes","internalType":"bytes"}],"outputs":[{"name":"","type":"bytes","internalType":"bytes"}],"stateMutability":"view"},{"type":"function","name":"endpoint","inputs":[],"outputs":[{"name":"","type":"address","internalType":"contract ILayerZeroEndpointV2"}],"stateMutability":"view"},{"type":"function","name":"enforcedOptions","inputs":[{"name":"eid","type":"uint32","internalType":"uint32"},{"name":"msgType","type":"uint16","internalType":"uint16"}],"outputs":[{"name":"enforcedOption","type":"bytes","internalType":"bytes"}],"stateMutability":"view"},{"type":"function","name":"isComposeMsgSender","inputs":[{"name":"","type":"tuple","internalType":"struct Origin","components":[{"name":"srcEid","type":"uint32","internalType":"uint32"},{"name":"sender","type":"bytes32","internalType":"bytes32"},{"name":"nonce","type":"uint64","internalType":"uint64"}]},{"name":"","type":"bytes","internalType":"bytes"},{"name":"_sender","type":"address","internalType":"address"}],"outputs":[{"name":"","type":"bool","internalType":"bool"}],"stateMutability":"view"},{"type":"function","name":"isPeer","inputs":[{"name":"_eid","type":"uint32","internalType":"uint32"},{"name":"_peer","type":"bytes32","internalType":"bytes32"}],"outputs":[{"name":"","type":"bool","internalType":"bool"}],"stateMutability":"view"},{"type":"function","name":"lzReceive","inputs":[{"name":"_origin","type":"tuple","internalType":"struct Origin","components":[{"name":"srcEid","type":"uint32","internalType":"uint32"},{"name":"sender","type":"bytes32","internalType":"bytes32"},{"name":"nonce","type":"uint64","internalType":"uint64"}]},{"name":"_guid","type":"bytes32","internalType":"bytes32"},{"name":"_message","type":"bytes","internalType":"bytes"},{"name":"_executor","type":"address","internalType":"address"},{"name":"_extraData","type":"bytes","internalType":"bytes"}],"outputs":[],"stateMutability":"payable"},{"type":"function","name":"lzReceiveAndRevert","inputs":[{"name":"_packets","type":"tuple[]","internalType":"struct InboundPacket[]","components":[{"name":"origin","type":"tuple","internalType":"struct Origin","components":[{"name":"srcEid","type":"uint32","internalType":"uint32"},{"name":"sender","type":"bytes32","internalType":"bytes32"},{"name":"nonce","type":"uint64","internalType":"uint64"}]},{"name":"dstEid","type":"uint32","internalType":"uint32"},{"name":"receiver","type":"address","internalType":"address"},{"name":"guid","type":"bytes32","internalType":"bytes32"},{"name":"value","type":"uint256","internalType":"uint256"},{"name":"executor","type":"address","internalType":"address"},{"name":"message","type":"bytes","internalType":"bytes"},{"name":"extraData","type":"bytes","internalType":"bytes"}]}],"outputs":[],"stateMutability":"payable"},{"type":"function","name":"lzReceiveSimulate","inputs":[{"name":"_origin","type":"tuple","internalType":"struct Origin","components":[{"name":"srcEid","type":"uint32","internalType":"uint32"},{"name":"sender","type":"bytes32","internalType":"bytes32"},{"name":"nonce","type":"uint64","internalType":"uint64"}]},{"name":"_guid","type":"bytes32","internalType":"bytes32"},{"name":"_message","type":"bytes","internalType":"bytes"},{"name":"_executor","type":"address","internalType":"address"},{"name":"_extraData","type":"bytes","internalType":"bytes"}],"outputs":[],"stateMutability":"payable"},{"type":"function","name":"msgInspector","inputs":[],"outputs":[{"name":"","type":"address","internalType":"address"}],"stateMutability":"view"},{"type":"function","name":"nextNonce","inputs":[{"name":"","type":"uint32","internalType":"uint32"},{"name":"","type":"bytes32","internalType":"bytes32"}],"outputs":[{"name":"nonce","type":"uint64","internalType":"uint64"}],"stateMutability":"view"},{"type":"function","name":"oApp","inputs":[],"outputs":[{"name":"","type":"address","internalType":"address"}],"stateMutability":"view"},{"type":"function","name":"oAppVersion","inputs":[],"outputs":[{"name":"senderVersion","type":"uint64","internalType":"uint64"},{"name":"receiverVersion","type":"uint64","internalType":"uint64"}],"stateMutability":"pure"},{"type":"function","name":"onftVersion","inputs":[],"outputs":[{"name":"interfaceId","type":"bytes4","internalType":"bytes4"},{"name":"version","type":"uint64","internalType":"uint64"}],"stateMutability":"pure"},{"type":"function","name":"owner","inputs":[],"outputs":[{"name":"","type":"address","internalType":"address"}],"stateMutability":"view"},{"type":"function","name":"peers","inputs":[{"name":"eid","type":"uint32","internalType":"uint32"}],"outputs":[{"name":"peer","type":"bytes32","internalType":"bytes32"}],"stateMutability":"view"},{"type":"function","name":"preCrime","inputs":[],"outputs":[{"name":"","type":"address","internalType":"address"}],"stateMutability":"view"},{"type":"function","name":"quoteSend","inputs":[{"name":"_sendParam","type":"tuple","internalType":"struct SendParam","components":[{"name":"dstEid","type":"uint32","internalType":"uint32"},{"name":"to","type":"bytes32","internalType":"bytes32"},{"name":"tokenId","type":"uint256","internalType":"uint256"},{"name":"extraOptions","type":"bytes","internalType":"bytes"},{"name":"composeMsg","type":"bytes","internalType":"bytes"},{"name":"onftCmd","type":"bytes","internalType":"bytes"}]},{"name":"_payInLzToken","type":"bool","internalType":"bool"}],"outputs":[{"name":"msgFee","type":"tuple","internalType":"struct MessagingFee","components":[{"name":"nativeFee","type":"uint256","internalType":"uint256"},{"name":"lzTokenFee","type":"uint256","internalType":"uint256"}]}],"stateMutability":"view"},{"type":"function","name":"renounceOwnership","inputs":[],"outputs":[],"stateMutability":"nonpayable"},{"type":"function","name":"send","inputs":[{"name":"_sendParam","type":"tuple","internalType":"struct SendParam","components":[{"name":"dstEid","type":"uint32","internalType":"uint32"},{"name":"to","type":"bytes32","internalType":"bytes32"},{"name":"tokenId","type":"uint256","internalType":"uint256"},{"name":"extraOptions","type":"bytes","internalType":"bytes"},{"name":"composeMsg","type":"bytes","internalType":"bytes"},{"name":"onftCmd","type":"bytes","internalType":"bytes"}]},{"name":"_fee","type":"tuple","internalType":"struct MessagingFee","components":[{"name":"nativeFee","type":"uint256","internalType":"uint256"},{"name":"lzTokenFee","type":"uint256","internalType":"uint256"}]},{"name":"_refundAddress","type":"address","internalType":"address"}],"outputs":[{"name":"msgReceipt","type":"tuple","internalType":"struct MessagingReceipt","components":[{"name":"guid","type":"bytes32","internalType":"bytes32"},{"name":"nonce","type":"uint64","internalType":"uint64"},{"name":"fee","type":"tuple","internalType":"struct MessagingFee","components":[{"name":"nativeFee","type":"uint256","internalType":"uint256"},{"name":"lzTokenFee","type":"uint256","internalType":"uint256"}]}]}],"stateMutability":"payable"},{"type":"function","name":"setDelegate","inputs":[{"name":"_delegate","type":"address","internalType":"address"}],"outputs":[],"stateMutability":"nonpayable"},{"type":"function","name":"setEnforcedOptions","inputs":[{"name":"_enforcedOptions","type":"tuple[]","internalType":"struct EnforcedOptionParam[]","components":[{"name":"eid","type":"uint32","internalType":"uint32"},{"name":"msgType","type":"uint16","internalType":"uint16"},{"name":"options","type":"bytes","internalType":"bytes"}]}],"outputs":[],"stateMutability":"nonpayable"},{"type":"function","name":"setMsgInspector","inputs":[{"name":"_msgInspector","type":"address","internalType":"address"}],"outputs":[],"stateMutability":"nonpayable"},{"type":"function","name":"setPeer","inputs":[{"name":"_eid","type":"uint32","internalType":"uint32"},{"name":"_peer","type":"bytes32","internalType":"bytes32"}],"outputs":[],"stateMutability":"nonpayable"},{"type":"function","name":"setPreCrime","inputs":[{"name":"_preCrime","type":"address","internalType":"address"}],"outputs":[],"stateMutability":"nonpayable"},{"type":"function","name":"token","inputs":[],"outputs":[{"name":"","type":"address","internalType":"address"}],"stateMutability":"view"},{"type":"function","name":"transferOwnership","inputs":[{"name":"newOwner","type":"address","internalType":"address"}],"outputs":[],"stateMutability":"nonpayable"},{"type":"event","name":"EnforcedOptionSet","inputs":[{"name":"_enforcedOptions","type":"tuple[]","indexed":false,"internalType":"struct EnforcedOptionParam[]","components":[{"name":"eid","type":"uint32","internalType":"uint32"},{"name":"msgType","type":"uint16","internalType":"uint16"},{"name":"options","type":"bytes","internalType":"bytes"}]}],"anonymous":false},{"type":"event","name":"MsgInspectorSet","inputs":[{"name":"inspector","type":"address","indexed":false,"internalType":"address"}],"anonymous":false},{"type":"event","name":"ONFTReceived","inputs":[{"name":"guid","type":"bytes32","indexed":true,"internalType":"bytes32"},{"name":"srcEid","type":"uint32","indexed":false,"internalType":"uint32"},{"name":"toAddress","type":"address","indexed":true,"internalType":"address"},{"name":"tokenId","type":"uint256","indexed":false,"internalType":"uint256"}],"anonymous":false},{"type":"event","name":"ONFTSent","inputs":[{"name":"guid","type":"bytes32","indexed":true,"internalType":"bytes32"},{"name":"dstEid","type":"uint32","indexed":false,"internalType":"uint32"},{"name":"fromAddress","type":"address","indexed":true,"internalType":"address"},{"name":"tokenId","type":"uint256","indexed":false,"internalType":"uint256"}],"anonymous":false},{"type":"event","name":"OwnershipTransferred","inputs":[{"name":"previousOwner","type":"address","indexed":true,"internalType":"address"},{"name":"newOwner","type":"address","indexed":true,"internalType":"address"}],"anonymous":false},{"type":"event","name":"PeerSet","inputs":[{"name":"eid","type":"uint32","indexed":false,"internalType":"uint32"},{"name":"peer","type":"bytes32","indexed":false,"internalType":"bytes32"}],"anonymous":false},{"type":"event","name":"PreCrimeSet","inputs":[{"name":"preCrimeAddress","type":"address","indexed":false,"internalType":"address"}],"anonymous":false},{"type":"error","name":"InvalidDelegate","inputs":[]},{"type":"error","name":"InvalidEndpointCall","inputs":[]},{"type":"error","name":"InvalidOptions","inputs":[{"name":"options","type":"bytes","internalType":"bytes"}]},{"type":"error","name":"InvalidReceiver","inputs":[]},{"type":"error","name":"LzTokenUnavailable","inputs":[]},{"type":"error","name":"NoPeer","inputs":[{"name":"eid","type":"uint32","internalType":"uint32"}]},{"type":"error","name":"NotEnoughNative","inputs":[{"name":"msgValue","type":"uint256","internalType":"uint256"}]},{"type":"error","name":"OnlyEndpoint","inputs":[{"name":"addr","type":"address","internalType":"address"}]},{"type":"error","name":"OnlyNFTOwner","inputs":[{"name":"caller","type":"address","internalType":"address"},{"name":"owner","type":"address","internalType":"address"}]},{"type":"error","name":"OnlyPeer","inputs":[{"name":"eid","type":"uint32","internalType":"uint32"},{"name":"sender","type":"bytes32","internalType":"bytes32"}]},{"type":"error","name":"OnlySelf","inputs":[]},{"type":"error","name":"OwnableInvalidOwner","inputs":[{"name":"owner","type":"address","internalType":"address"}]},{"type":"error","name":"OwnableUnauthorizedAccount","inputs":[{"name":"account","type":"address","internalType":"address"}]},{"type":"error","name":"SafeERC20FailedOperation","inputs":[{"name":"token","type":"address","internalType":"address"}]},{"type":"error","name":"SimulationResult","inputs":[{"name":"result","type":"bytes","internalType":"bytes"}]}],"bytecode":{"object":"0x60c060405234801561000f575f5ffd5b50604051613fdb380380613fdb83398181016040528101906100319190610320565b828282818181818181845f73ffffffffffffffffffffffffffffffffffffffff168173ffffffffffffffffffffffffffffffffffffffff16036100ab575f6040517f1e4fbdf70000000000000000000000000000000000000000000000000000000081526004016100a2919061037f565b60405180910390fd5b6100ba8161020160201b60201c565b508173ffffffffffffffffffffffffffffffffffffffff1660808173ffffffffffffffffffffffffffffffffffffffff16815250505f73ffffffffffffffffffffffffffffffffffffffff168173ffffffffffffffffffffffffffffffffffffffff1603610154576040517fb586360400000000000000000000000000000000000000000000000000000000815260040160405180910390fd5b60805173ffffffffffffffffffffffffffffffffffffffff1663ca5eb5e1826040518263ffffffff1660e01b815260040161018f919061037f565b5f604051808303815f87803b1580156101a6575f5ffd5b505af11580156101b8573d5f5f3e3d5ffd5b505050505050505050508273ffffffffffffffffffffffffffffffffffffffff1660a08173ffffffffffffffffffffffffffffffffffffffff1681525050505050505050610398565b5f5f5f9054906101000a900473ffffffffffffffffffffffffffffffffffffffff169050815f5f6101000a81548173ffffffffffffffffffffffffffffffffffffffff021916908373ffffffffffffffffffffffffffffffffffffffff1602179055508173ffffffffffffffffffffffffffffffffffffffff168173ffffffffffffffffffffffffffffffffffffffff167f8be0079c531659141344cd1fd0a4f28419497f9722a3daafe3b4186f6b6457e060405160405180910390a35050565b5f5ffd5b5f73ffffffffffffffffffffffffffffffffffffffff82169050919050565b5f6102ef826102c6565b9050919050565b6102ff816102e5565b8114610309575f5ffd5b50565b5f8151905061031a816102f6565b92915050565b5f5f5f60608486031215610337576103366102c2565b5b5f6103448682870161030c565b93505060206103558682870161030c565b92505060406103668682870161030c565b9150509250925092565b610379816102e5565b82525050565b5f6020820190506103925f830184610370565b92915050565b60805160a051613be36103f85f395f81816112060152818161145c0152611c4101525f818161074801528181610a2901528181610ff901528181611361015281816116e601528181611aeb01528181611e300152611f280152613be35ff3fe6080604052600436106101cc575f3560e01c80639f68b964116100f6578063bd815db011610094578063d424388511610063578063d424388514610654578063f2fde38b1461067c578063fc0c546a146106a4578063ff7bd03d146106ce576101cc565b8063bd815db0146105b8578063c6414e7b146105d4578063ca5eb5e114610610578063d045a0dc14610638576101cc565b8063b731ea0a116100d0578063b731ea0a146104ee578063b98bd07014610518578063bb0b6a5314610540578063bc70b3541461057c576101cc565b80639f68b9641461046f578063a72f5dd814610499578063b21a33e4146104c4576101cc565b80635535d4611161016e578063715018a61161013d578063715018a6146103b75780637d25a05e146103cd57806382413eac146104095780638da5cb5b14610445576101cc565b80635535d461146102ed5780635a0dfe4d146103295780635e280f11146103655780636fc1b31e1461038f576101cc565b80631f5e1334116101aa5780631f5e13341461024157806321eb730b1461026b5780633400288b1461029b57806352ae2879146102c3576101cc565b8063111ecdad146101d057806313137d65146101fa57806317442b7014610216575b5f5ffd5b3480156101db575f5ffd5b506101e461070a565b6040516101f191906120e7565b60405180910390f35b610214600480360381019061020f91906121f1565b61072f565b005b348015610221575f5ffd5b5061022a61084f565b6040516102389291906122ca565b60405180910390f35b34801561024c575f5ffd5b5061025561085d565b604051610262919061230d565b60405180910390f35b61028560048036038101906102809190612362565b610862565b6040516102929190612471565b60405180910390f35b3480156102a6575f5ffd5b506102c160048036038101906102bc91906124c3565b61093b565b005b3480156102ce575f5ffd5b506102d7610951565b6040516102e491906120e7565b60405180910390f35b3480156102f8575f5ffd5b50610313600480360381019061030e919061252b565b610958565b60405161032091906125d9565b60405180910390f35b348015610334575f5ffd5b5061034f600480360381019061034a91906124c3565b6109fe565b60405161035c9190612613565b60405180910390f35b348015610370575f5ffd5b50610379610a27565b6040516103869190612687565b60405180910390f35b34801561039a575f5ffd5b506103b560048036038101906103b091906126a0565b610a4b565b005b3480156103c2575f5ffd5b506103cb610acd565b005b3480156103d8575f5ffd5b506103f360048036038101906103ee91906124c3565b610ae0565b60405161040091906126cb565b60405180910390f35b348015610414575f5ffd5b5061042f600480360381019061042a91906126e4565b610aea565b60405161043c9190612613565b60405180910390f35b348015610450575f5ffd5b50610459610b24565b60405161046691906120e7565b60405180910390f35b34801561047a575f5ffd5b50610483610b4b565b6040516104909190612613565b60405180910390f35b3480156104a4575f5ffd5b506104ad610b53565b6040516104bb92919061278f565b60405180910390f35b3480156104cf575f5ffd5b506104d8610b80565b6040516104e5919061230d565b60405180910390f35b3480156104f9575f5ffd5b50610502610b85565b60405161050f91906120e7565b60405180910390f35b348015610523575f5ffd5b5061053e6004803603810190610539919061280b565b610baa565b005b34801561054b575f5ffd5b5061056660048036038101906105619190612856565b610bcb565b6040516105739190612890565b60405180910390f35b348015610587575f5ffd5b506105a2600480360381019061059d91906128a9565b610be0565b6040516105af91906125d9565b60405180910390f35b6105d260048036038101906105cd919061296f565b610de2565b005b3480156105df575f5ffd5b506105fa60048036038101906105f591906129e4565b610fb1565b6040516106079190612a6b565b60405180910390f35b34801561061b575f5ffd5b50610636600480360381019061063191906126a0565b610fef565b005b610652600480360381019061064d91906121f1565b611080565b005b34801561065f575f5ffd5b5061067a600480360381019061067591906126a0565b6110fd565b005b348015610687575f5ffd5b506106a2600480360381019061069d91906126a0565b61117f565b005b3480156106af575f5ffd5b506106b8611203565b6040516106c591906120e7565b60405180910390f35b3480156106d9575f5ffd5b506106f460048036038101906106ef9190612a84565b61122a565b6040516107019190612613565b60405180910390f35b60045f9054906101000a900473ffffffffffffffffffffffffffffffffffffffff1681565b3373ffffffffffffffffffffffffffffffffffffffff167f000000000000000000000000000000000000000000000000000000000000000073ffffffffffffffffffffffffffffffffffffffff16146107bf57336040517f91ac5e4f0000000000000000000000000000000000000000000000000000000081526004016107b691906120e7565b60405180910390fd5b86602001356107de885f0160208101906107d99190612856565b611267565b1461083757865f0160208101906107f59190612856565b87602001356040517fc26bebcc00000000000000000000000000000000000000000000000000000000815260040161082e929190612abe565b60405180910390fd5b610846878787878787876112d8565b50505050505050565b5f5f60016002915091509091565b600181565b61086a612061565b61088a338560400135865f0160208101906108859190612856565b61145a565b5f5f610895866114e9565b915091506108c7865f0160208101906108ae9190612856565b8383888036038101906108c19190612bdc565b886116b3565b92503373ffffffffffffffffffffffffffffffffffffffff16835f01517f986156872b2ee0022b9585231dbbfde457f87f8a16b6c45e1a81c54c4ad8351f885f0160208101906109179190612856565b896040013560405161092a929190612c16565b60405180910390a350509392505050565b6109436117c9565b61094d8282611850565b5050565b5f30905090565b6003602052815f5260405f20602052805f5260405f205f9150915050805461097f90612c6a565b80601f01602080910402602001604051908101604052809291908181526020018280546109ab90612c6a565b80156109f65780601f106109cd576101008083540402835291602001916109f6565b820191905f5260205f20905b8154815290600101906020018083116109d957829003601f168201915b505050505081565b5f8160015f8563ffffffff1663ffffffff1681526020019081526020015f205414905092915050565b7f000000000000000000000000000000000000000000000000000000000000000081565b610a536117c9565b8060045f6101000a81548173ffffffffffffffffffffffffffffffffffffffff021916908373ffffffffffffffffffffffffffffffffffffffff1602179055507ff0be4f1e87349231d80c36b33f9e8639658eeaf474014dee15a3e6a4d441419781604051610ac291906120e7565b60405180910390a150565b610ad56117c9565b610ade5f6118af565b565b5f5f905092915050565b5f3073ffffffffffffffffffffffffffffffffffffffff168273ffffffffffffffffffffffffffffffffffffffff16149050949350505050565b5f5f5f9054906101000a900473ffffffffffffffffffffffffffffffffffffffff16905090565b5f6001905090565b5f5f7f23e18da6000000000000000000000000000000000000000000000000000000006001915091509091565b600281565b60025f9054906101000a900473ffffffffffffffffffffffffffffffffffffffff1681565b610bb26117c9565b610bc7828290610bc29190612e78565b611970565b5050565b6001602052805f5260405f205f915090505481565b60605f60035f8763ffffffff1663ffffffff1681526020019081526020015f205f8661ffff1661ffff1681526020019081526020015f208054610c2290612c6a565b80601f0160208091040260200160405190810160405280929190818152602001828054610c4e90612c6a565b8015610c995780601f10610c7057610100808354040283529160200191610c99565b820191905f5260205f20905b815481529060010190602001808311610c7c57829003601f168201915b505050505090505f815103610cf45783838080601f0160208091040260200160405190810160405280939291908181526020018383808284375f81840152601f19601f82011690508083019250505050505050915050610dda565b5f8484905003610d075780915050610dda565b60028484905010610d9b57610d5e84848080601f0160208091040260200160405190810160405280939291908181526020018383808284375f81840152601f19601f82011690508083019250505050505050611a88565b8084846002908092610d7293929190612e94565b604051602001610d8493929190612f2c565b604051602081830303815290604052915050610dda565b83836040517f9a6d49cd000000000000000000000000000000000000000000000000000000008152600401610dd1929190612f7d565b60405180910390fd5b949350505050565b5f5f90505b82829050811015610f045736838383818110610e0657610e05612f9f565b5b9050602002810190610e189190612fd8565b9050610e3d815f015f016020810190610e319190612856565b825f01602001356109fe565b610e475750610ef7565b3073ffffffffffffffffffffffffffffffffffffffff1663d045a0dc8260c00135835f018460a0013585806101000190610e819190613000565b8760e0016020810190610e9491906126a0565b88806101200190610ea59190613000565b6040518963ffffffff1660e01b8152600401610ec79796959493929190613135565b5f604051808303818588803b158015610ede575f5ffd5b505af1158015610ef0573d5f5f3e3d5ffd5b5050505050505b8080600101915050610de7565b503373ffffffffffffffffffffffffffffffffffffffff16638e9e70996040518163ffffffff1660e01b81526004015f60405180830381865afa158015610f4d573d5f5f3e3d5ffd5b505050506040513d5f823e3d601f19601f82011682018060405250810190610f759190613206565b6040517f8351eea7000000000000000000000000000000000000000000000000000000008152600401610fa891906125d9565b60405180910390fd5b610fb9612090565b5f5f610fc4856114e9565b91509150610fe5855f016020810190610fdd9190612856565b838387611ae1565b9250505092915050565b610ff76117c9565b7f000000000000000000000000000000000000000000000000000000000000000073ffffffffffffffffffffffffffffffffffffffff1663ca5eb5e1826040518263ffffffff1660e01b815260040161105091906120e7565b5f604051808303815f87803b158015611067575f5ffd5b505af1158015611079573d5f5f3e3d5ffd5b5050505050565b3073ffffffffffffffffffffffffffffffffffffffff163373ffffffffffffffffffffffffffffffffffffffff16146110e5576040517f14d4a4e800000000000000000000000000000000000000000000000000000000815260040160405180910390fd5b6110f487878787878787611bc2565b50505050505050565b6111056117c9565b8060025f6101000a81548173ffffffffffffffffffffffffffffffffffffffff021916908373ffffffffffffffffffffffffffffffffffffffff1602179055507fd48d879cef83a1c0bdda516f27b13ddb1b3f8bbac1c9e1511bb2a659c24277608160405161117491906120e7565b60405180910390a150565b6111876117c9565b5f73ffffffffffffffffffffffffffffffffffffffff168173ffffffffffffffffffffffffffffffffffffffff16036111f7575f6040517f1e4fbdf70000000000000000000000000000000000000000000000000000000081526004016111ee91906120e7565b60405180910390fd5b611200816118af565b50565b5f7f0000000000000000000000000000000000000000000000000000000000000000905090565b5f816020013560015f845f0160208101906112459190612856565b63ffffffff1663ffffffff1681526020019081526020015f2054149050919050565b5f5f60015f8463ffffffff1663ffffffff1681526020019081526020015f205490505f5f1b81036112cf57826040517ff6ff4fb70000000000000000000000000000000000000000000000000000000081526004016112c6919061324d565b60405180910390fd5b80915050919050565b5f6112eb6112e68787611bda565b611c04565b90505f6112f88787611c0f565b905061131682828b5f0160208101906113119190612856565b611c3f565b6113208787611cce565b156113ed575f61135d8a604001602081019061133c9190613266565b8b5f01602081019061134e9190612856565b6113588b8b611ce1565b611d43565b90507f000000000000000000000000000000000000000000000000000000000000000073ffffffffffffffffffffffffffffffffffffffff16637cb59012848b5f856040518563ffffffff1660e01b81526004016113be94939291906132ca565b5f604051808303815f87803b1580156113d5575f5ffd5b505af11580156113e7573d5f5f3e3d5ffd5b50505050505b8173ffffffffffffffffffffffffffffffffffffffff16887f7883fa30ea56937810e36990b0bbb8d629d0cf59f68baf8431ff657cebe7eef58b5f0160208101906114389190612856565b84604051611447929190612c16565b60405180910390a3505050505050505050565b7f000000000000000000000000000000000000000000000000000000000000000073ffffffffffffffffffffffffffffffffffffffff166323b872dd8430856040518463ffffffff1660e01b81526004016114b793929190613314565b5f604051808303815f87803b1580156114ce575f5ffd5b505af11580156114e0573d5f5f3e3d5ffd5b50505050505050565b6060805f5f1b83602001350361152b576040517f1e4ec46b00000000000000000000000000000000000000000000000000000000815260040160405180910390fd5b5f611590846020013585604001358680608001906115499190613000565b8080601f0160208091040260200160405190810160405280939291908181526020018383808284375f81840152601f19601f82011690508083019250505050505050611d72565b80925081945050505f816115a55760016115a8565b60025b90506115d5855f0160208101906115bf9190612856565b828780606001906115d09190613000565b610be0565b92505f60045f9054906101000a900473ffffffffffffffffffffffffffffffffffffffff1690505f73ffffffffffffffffffffffffffffffffffffffff168173ffffffffffffffffffffffffffffffffffffffff16146116ab578073ffffffffffffffffffffffffffffffffffffffff1663043a78eb86866040518363ffffffff1660e01b815260040161166a929190613349565b602060405180830381865afa158015611685573d5f5f3e3d5ffd5b505050506040513d601f19601f820116820180604052508101906116a99190613392565b505b505050915091565b6116bb612061565b5f6116c8845f0151611de0565b90505f846020015111156116e4576116e38460200151611e2d565b5b7f000000000000000000000000000000000000000000000000000000000000000073ffffffffffffffffffffffffffffffffffffffff16632637a450826040518060a001604052808b63ffffffff1681526020016117418c611267565b81526020018a81526020018981526020015f8960200151111515815250866040518463ffffffff1660e01b815260040161177c92919061348e565b60806040518083038185885af1158015611798573d5f5f3e3d5ffd5b50505050506040513d601f19601f820116820180604052508101906117bd91906135a6565b91505095945050505050565b6117d1611f73565b73ffffffffffffffffffffffffffffffffffffffff166117ef610b24565b73ffffffffffffffffffffffffffffffffffffffff161461184e57611812611f73565b6040517f118cdaa700000000000000000000000000000000000000000000000000000000815260040161184591906120e7565b60405180910390fd5b565b8060015f8463ffffffff1663ffffffff1681526020019081526020015f20819055507f238399d427b947898edb290f5ff0f9109849b1c3ba196a42e35f00c50a54b98b82826040516118a3929190612abe565b60405180910390a15050565b5f5f5f9054906101000a900473ffffffffffffffffffffffffffffffffffffffff169050815f5f6101000a81548173ffffffffffffffffffffffffffffffffffffffff021916908373ffffffffffffffffffffffffffffffffffffffff1602179055508173ffffffffffffffffffffffffffffffffffffffff168173ffffffffffffffffffffffffffffffffffffffff167f8be0079c531659141344cd1fd0a4f28419497f9722a3daafe3b4186f6b6457e060405160405180910390a35050565b5f5f90505b8151811015611a4d576119a582828151811061199457611993612f9f565b5b602002602001015160400151611a88565b8181815181106119b8576119b7612f9f565b5b60200260200101516040015160035f8484815181106119da576119d9612f9f565b5b60200260200101515f015163ffffffff1663ffffffff1681526020019081526020015f205f848481518110611a1257611a11612f9f565b5b60200260200101516020015161ffff1661ffff1681526020019081526020015f209081611a3f9190613768565b508080600101915050611975565b507fbe4864a8e820971c0247f5992e2da559595f7bf076a21cb5928d443d2a13b67481604051611a7d919061394e565b60405180910390a150565b5f60028201519050600361ffff168161ffff1614611add57816040517f9a6d49cd000000000000000000000000000000000000000000000000000000008152600401611ad491906125d9565b60405180910390fd5b5050565b611ae9612090565b7f000000000000000000000000000000000000000000000000000000000000000073ffffffffffffffffffffffffffffffffffffffff1663ddc28c586040518060a001604052808863ffffffff168152602001611b4589611267565b8152602001878152602001868152602001851515815250306040518363ffffffff1660e01b8152600401611b7a92919061348e565b6040805180830381865afa158015611b94573d5f5f3e3d5ffd5b505050506040513d601f19601f82011682018060405250810190611bb8919061396e565b9050949350505050565b611bd1878787878787876112d8565b50505050505050565b5f82825f90602060ff1692611bf193929190612e94565b90611bfc91906139a3565b905092915050565b5f815f1c9050919050565b5f8282602060ff1690604060ff1692611c2a93929190612e94565b90611c3591906139a3565b5f1c905092915050565b7f000000000000000000000000000000000000000000000000000000000000000073ffffffffffffffffffffffffffffffffffffffff166323b872dd3085856040518463ffffffff1660e01b8152600401611c9c93929190613314565b5f604051808303815f87803b158015611cb3575f5ffd5b505af1158015611cc5573d5f5f3e3d5ffd5b50505050505050565b5f604060ff168383905011905092915050565b60608282604060ff16908092611cf993929190612e94565b8080601f0160208091040260200160405190810160405280939291908181526020018383808284375f81840152601f19601f82011690508083019250505050505050905092915050565b6060838383604051602001611d5a93929190613a69565b60405160208183030381529060405290509392505050565b60605f5f835111905080611da7578484604051602001611d93929190613ae1565b604051602081830303815290604052611dd6565b8484611db233611f7a565b85604051602001611dc69493929190613b0c565b6040516020818303038152906040525b9150935093915050565b5f813414611e2557346040517f9f704120000000000000000000000000000000000000000000000000000000008152600401611e1c9190613b55565b60405180910390fd5b819050919050565b5f7f000000000000000000000000000000000000000000000000000000000000000073ffffffffffffffffffffffffffffffffffffffff1663e4fe1d946040518163ffffffff1660e01b8152600401602060405180830381865afa158015611e97573d5f5f3e3d5ffd5b505050506040513d601f19601f82011682018060405250810190611ebb9190613b82565b90505f73ffffffffffffffffffffffffffffffffffffffff168173ffffffffffffffffffffffffffffffffffffffff1603611f22576040517f5373352a00000000000000000000000000000000000000000000000000000000815260040160405180910390fd5b611f6f337f0000000000000000000000000000000000000000000000000000000000000000848473ffffffffffffffffffffffffffffffffffffffff16611f9b909392919063ffffffff16565b5050565b5f33905090565b5f8173ffffffffffffffffffffffffffffffffffffffff165f1b9050919050565b611fa9848484846001611ff0565b611fea57836040517f5274afe7000000000000000000000000000000000000000000000000000000008152600401611fe191906120e7565b60405180910390fd5b50505050565b5f5f6323b872dd60e01b9050604051815f525f1960601c87166004525f1960601c86166024528460445260205f60645f5f8c5af1925060015f5114831661204e578383151615612042573d5f823e3d81fd5b5f883b113d1516831692505b806040525f606052505095945050505050565b60405180606001604052805f81526020015f67ffffffffffffffff16815260200161208a612090565b81525090565b60405180604001604052805f81526020015f81525090565b5f73ffffffffffffffffffffffffffffffffffffffff82169050919050565b5f6120d1826120a8565b9050919050565b6120e1816120c7565b82525050565b5f6020820190506120fa5f8301846120d8565b92915050565b5f604051905090565b5f5ffd5b5f5ffd5b5f5ffd5b5f6060828403121561212a57612129612111565b5b81905092915050565b5f819050919050565b61214581612133565b811461214f575f5ffd5b50565b5f813590506121608161213c565b92915050565b5f5ffd5b5f5ffd5b5f5ffd5b5f5f83601f84011261218757612186612166565b5b8235905067ffffffffffffffff8111156121a4576121a361216a565b5b6020830191508360018202830111156121c0576121bf61216e565b5b9250929050565b6121d0816120c7565b81146121da575f5ffd5b50565b5f813590506121eb816121c7565b92915050565b5f5f5f5f5f5f5f60e0888a03121561220c5761220b612109565b5b5f6122198a828b01612115565b975050606061222a8a828b01612152565b965050608088013567ffffffffffffffff81111561224b5761224a61210d565b5b6122578a828b01612172565b955095505060a061226a8a828b016121dd565b93505060c088013567ffffffffffffffff81111561228b5761228a61210d565b5b6122978a828b01612172565b925092505092959891949750929550565b5f67ffffffffffffffff82169050919050565b6122c4816122a8565b82525050565b5f6040820190506122dd5f8301856122bb565b6122ea60208301846122bb565b9392505050565b5f61ffff82169050919050565b612307816122f1565b82525050565b5f6020820190506123205f8301846122fe565b92915050565b5f60c0828403121561233b5761233a612111565b5b81905092915050565b5f6040828403121561235957612358612111565b5b81905092915050565b5f5f5f6080848603121561237957612378612109565b5b5f84013567ffffffffffffffff8111156123965761239561210d565b5b6123a286828701612326565b93505060206123b386828701612344565b92505060606123c4868287016121dd565b9150509250925092565b6123d781612133565b82525050565b6123e6816122a8565b82525050565b5f819050919050565b6123fe816123ec565b82525050565b604082015f8201516124185f8501826123f5565b50602082015161242b60208501826123f5565b50505050565b608082015f8201516124455f8501826123ce565b50602082015161245860208501826123dd565b50604082015161246b6040850182612404565b50505050565b5f6080820190506124845f830184612431565b92915050565b5f63ffffffff82169050919050565b6124a28161248a565b81146124ac575f5ffd5b50565b5f813590506124bd81612499565b92915050565b5f5f604083850312156124d9576124d8612109565b5b5f6124e6858286016124af565b92505060206124f785828601612152565b9150509250929050565b61250a816122f1565b8114612514575f5ffd5b50565b5f8135905061252581612501565b92915050565b5f5f6040838503121561254157612540612109565b5b5f61254e858286016124af565b925050602061255f85828601612517565b9150509250929050565b5f81519050919050565b5f82825260208201905092915050565b8281835e5f83830152505050565b5f601f19601f8301169050919050565b5f6125ab82612569565b6125b58185612573565b93506125c5818560208601612583565b6125ce81612591565b840191505092915050565b5f6020820190508181035f8301526125f181846125a1565b905092915050565b5f8115159050919050565b61260d816125f9565b82525050565b5f6020820190506126265f830184612604565b92915050565b5f819050919050565b5f61264f61264a612645846120a8565b61262c565b6120a8565b9050919050565b5f61266082612635565b9050919050565b5f61267182612656565b9050919050565b61268181612667565b82525050565b5f60208201905061269a5f830184612678565b92915050565b5f602082840312156126b5576126b4612109565b5b5f6126c2848285016121dd565b91505092915050565b5f6020820190506126de5f8301846122bb565b92915050565b5f5f5f5f60a085870312156126fc576126fb612109565b5b5f61270987828801612115565b945050606085013567ffffffffffffffff81111561272a5761272961210d565b5b61273687828801612172565b93509350506080612749878288016121dd565b91505092959194509250565b5f7fffffffff0000000000000000000000000000000000000000000000000000000082169050919050565b61278981612755565b82525050565b5f6040820190506127a25f830185612780565b6127af60208301846122bb565b9392505050565b5f5f83601f8401126127cb576127ca612166565b5b8235905067ffffffffffffffff8111156127e8576127e761216a565b5b6020830191508360208202830111156128045761280361216e565b5b9250929050565b5f5f6020838503121561282157612820612109565b5b5f83013567ffffffffffffffff81111561283e5761283d61210d565b5b61284a858286016127b6565b92509250509250929050565b5f6020828403121561286b5761286a612109565b5b5f612878848285016124af565b91505092915050565b61288a81612133565b82525050565b5f6020820190506128a35f830184612881565b92915050565b5f5f5f5f606085870312156128c1576128c0612109565b5b5f6128ce878288016124af565b94505060206128df87828801612517565b935050604085013567ffffffffffffffff811115612900576128ff61210d565b5b61290c87828801612172565b925092505092959194509250565b5f5f83601f84011261292f5761292e612166565b5b8235905067ffffffffffffffff81111561294c5761294b61216a565b5b6020830191508360208202830111156129685761296761216e565b5b9250929050565b5f5f6020838503121561298557612984612109565b5b5f83013567ffffffffffffffff8111156129a2576129a161210d565b5b6129ae8582860161291a565b92509250509250929050565b6129c3816125f9565b81146129cd575f5ffd5b50565b5f813590506129de816129ba565b92915050565b5f5f604083850312156129fa576129f9612109565b5b5f83013567ffffffffffffffff811115612a1757612a1661210d565b5b612a2385828601612326565b9250506020612a34858286016129d0565b9150509250929050565b604082015f820151612a525f8501826123f5565b506020820151612a6560208501826123f5565b50505050565b5f604082019050612a7e5f830184612a3e565b92915050565b5f60608284031215612a9957612a98612109565b5b5f612aa684828501612115565b91505092915050565b612ab88161248a565b82525050565b5f604082019050612ad15f830185612aaf565b612ade6020830184612881565b9392505050565b5f5ffd5b7f4e487b71000000000000000000000000000000000000000000000000000000005f52604160045260245ffd5b612b1f82612591565b810181811067ffffffffffffffff82111715612b3e57612b3d612ae9565b5b80604052505050565b5f612b50612100565b9050612b5c8282612b16565b919050565b5f5ffd5b612b6e816123ec565b8114612b78575f5ffd5b50565b5f81359050612b8981612b65565b92915050565b5f60408284031215612ba457612ba3612ae5565b5b612bae6040612b47565b90505f612bbd84828501612b7b565b5f830152506020612bd084828501612b7b565b60208301525092915050565b5f60408284031215612bf157612bf0612109565b5b5f612bfe84828501612b8f565b91505092915050565b612c10816123ec565b82525050565b5f604082019050612c295f830185612aaf565b612c366020830184612c07565b9392505050565b7f4e487b71000000000000000000000000000000000000000000000000000000005f52602260045260245ffd5b5f6002820490506001821680612c8157607f821691505b602082108103612c9457612c93612c3d565b5b50919050565b5f67ffffffffffffffff821115612cb457612cb3612ae9565b5b602082029050602081019050919050565b5f5ffd5b5f67ffffffffffffffff821115612ce357612ce2612ae9565b5b612cec82612591565b9050602081019050919050565b828183375f83830152505050565b5f612d19612d1484612cc9565b612b47565b905082815260208101848484011115612d3557612d34612cc5565b5b612d40848285612cf9565b509392505050565b5f82601f830112612d5c57612d5b612166565b5b8135612d6c848260208601612d07565b91505092915050565b5f60608284031215612d8a57612d89612ae5565b5b612d946060612b47565b90505f612da3848285016124af565b5f830152506020612db684828501612517565b602083015250604082013567ffffffffffffffff811115612dda57612dd9612b61565b5b612de684828501612d48565b60408301525092915050565b5f612e04612dff84612c9a565b612b47565b90508083825260208201905060208402830185811115612e2757612e2661216e565b5b835b81811015612e6e57803567ffffffffffffffff811115612e4c57612e4b612166565b5b808601612e598982612d75565b85526020850194505050602081019050612e29565b5050509392505050565b5f612e84368484612df2565b905092915050565b5f5ffd5b5f5ffd5b5f5f85851115612ea757612ea6612e8c565b5b83861115612eb857612eb7612e90565b5b6001850283019150848603905094509492505050565b5f81905092915050565b5f612ee282612569565b612eec8185612ece565b9350612efc818560208601612583565b80840191505092915050565b5f612f138385612ece565b9350612f20838584612cf9565b82840190509392505050565b5f612f378286612ed8565b9150612f44828486612f08565b9150819050949350505050565b5f612f5c8385612573565b9350612f69838584612cf9565b612f7283612591565b840190509392505050565b5f6020820190508181035f830152612f96818486612f51565b90509392505050565b7f4e487b71000000000000000000000000000000000000000000000000000000005f52603260045260245ffd5b5f5ffd5b5f5ffd5b5f5ffd5b5f8235600161014003833603038112612ff457612ff3612fcc565b5b80830191505092915050565b5f5f8335600160200384360303811261301c5761301b612fcc565b5b80840192508235915067ffffffffffffffff82111561303e5761303d612fd0565b5b60208301925060018202360383131561305a57613059612fd4565b5b509250929050565b5f61307060208401846124af565b905092915050565b6130818161248a565b82525050565b5f6130956020840184612152565b905092915050565b6130a6816122a8565b81146130b0575f5ffd5b50565b5f813590506130c18161309d565b92915050565b5f6130d560208401846130b3565b905092915050565b606082016130ed5f830183613062565b6130f95f850182613078565b506131076020830183613087565b61311460208501826123ce565b5061312260408301836130c7565b61312f60408501826123dd565b50505050565b5f60e0820190506131485f83018a6130dd565b6131556060830189612881565b8181036080830152613168818789612f51565b905061317760a08301866120d8565b81810360c083015261318a818486612f51565b905098975050505050505050565b5f6131aa6131a584612cc9565b612b47565b9050828152602081018484840111156131c6576131c5612cc5565b5b6131d1848285612583565b509392505050565b5f82601f8301126131ed576131ec612166565b5b81516131fd848260208601613198565b91505092915050565b5f6020828403121561321b5761321a612109565b5b5f82015167ffffffffffffffff8111156132385761323761210d565b5b613244848285016131d9565b91505092915050565b5f6020820190506132605f830184612aaf565b92915050565b5f6020828403121561327b5761327a612109565b5b5f613288848285016130b3565b91505092915050565b5f819050919050565b5f6132b46132af6132aa84613291565b61262c565b6122f1565b9050919050565b6132c48161329a565b82525050565b5f6080820190506132dd5f8301876120d8565b6132ea6020830186612881565b6132f760408301856132bb565b818103606083015261330981846125a1565b905095945050505050565b5f6060820190506133275f8301866120d8565b61333460208301856120d8565b6133416040830184612c07565b949350505050565b5f6040820190508181035f83015261336181856125a1565b9050818103602083015261337581846125a1565b90509392505050565b5f8151905061338c816129ba565b92915050565b5f602082840312156133a7576133a6612109565b5b5f6133b48482850161337e565b91505092915050565b5f82825260208201905092915050565b5f6133d782612569565b6133e181856133bd565b93506133f1818560208601612583565b6133fa81612591565b840191505092915050565b61340e816125f9565b82525050565b5f60a083015f8301516134295f860182613078565b50602083015161343c60208601826123ce565b506040830151848203604086015261345482826133cd565b9150506060830151848203606086015261346e82826133cd565b91505060808301516134836080860182613405565b508091505092915050565b5f6040820190508181035f8301526134a68185613414565b90506134b560208301846120d8565b9392505050565b5f815190506134ca8161213c565b92915050565b5f815190506134de8161309d565b92915050565b5f815190506134f281612b65565b92915050565b5f6040828403121561350d5761350c612ae5565b5b6135176040612b47565b90505f613526848285016134e4565b5f830152506020613539848285016134e4565b60208301525092915050565b5f6080828403121561355a57613559612ae5565b5b6135646060612b47565b90505f613573848285016134bc565b5f830152506020613586848285016134d0565b602083015250604061359a848285016134f8565b60408301525092915050565b5f608082840312156135bb576135ba612109565b5b5f6135c884828501613545565b91505092915050565b5f819050815f5260205f209050919050565b5f6020601f8301049050919050565b5f82821b905092915050565b5f6008830261362d7fffffffffffffffffffffffffffffffffffffffffffffffffffffffffffffffff826135f2565b61363786836135f2565b95508019841693508086168417925050509392505050565b5f61366961366461365f846123ec565b61262c565b6123ec565b9050919050565b5f819050919050565b6136828361364f565b61369661368e82613670565b8484546135fe565b825550505050565b5f5f905090565b6136ad61369e565b6136b8818484613679565b505050565b5b818110156136db576136d05f826136a5565b6001810190506136be565b5050565b601f821115613720576136f1816135d1565b6136fa846135e3565b81016020851015613709578190505b61371d613715856135e3565b8301826136bd565b50505b505050565b5f82821c905092915050565b5f6137405f1984600802613725565b1980831691505092915050565b5f6137588383613731565b9150826002028217905092915050565b61377182612569565b67ffffffffffffffff81111561378a57613789612ae9565b5b6137948254612c6a565b61379f8282856136df565b5f60209050601f8311600181146137d0575f84156137be578287015190505b6137c8858261374d565b86555061382f565b601f1984166137de866135d1565b5f5b82811015613805578489015182556001820191506020850194506020810190506137e0565b86831015613822578489015161381e601f891682613731565b8355505b6001600288020188555050505b505050505050565b5f81519050919050565b5f82825260208201905092915050565b5f819050602082019050919050565b613869816122f1565b82525050565b5f606083015f8301516138845f860182613078565b5060208301516138976020860182613860565b50604083015184820360408601526138af82826133cd565b9150508091505092915050565b5f6138c7838361386f565b905092915050565b5f602082019050919050565b5f6138e582613837565b6138ef8185613841565b93508360208202850161390185613851565b805f5b8581101561393c578484038952815161391d85826138bc565b9450613928836138cf565b925060208a01995050600181019050613904565b50829750879550505050505092915050565b5f6020820190508181035f83015261396681846138db565b905092915050565b5f6040828403121561398357613982612109565b5b5f613990848285016134f8565b91505092915050565b5f82905092915050565b5f6139ae8383613999565b826139b98135612133565b925060208210156139f9576139f47fffffffffffffffffffffffffffffffffffffffffffffffffffffffffffffffff836020036008026135f2565b831692505b505092915050565b5f8160c01b9050919050565b5f613a1782613a01565b9050919050565b613a2f613a2a826122a8565b613a0d565b82525050565b5f8160e01b9050919050565b5f613a4b82613a35565b9050919050565b613a63613a5e8261248a565b613a41565b82525050565b5f613a748286613a1e565b600882019150613a848285613a52565b600482019150613a948284612ed8565b9150819050949350505050565b5f819050919050565b613abb613ab682612133565b613aa1565b82525050565b5f819050919050565b613adb613ad6826123ec565b613ac1565b82525050565b5f613aec8285613aaa565b602082019150613afc8284613aca565b6020820191508190509392505050565b5f613b178287613aaa565b602082019150613b278286613aca565b602082019150613b378285613aaa565b602082019150613b478284612ed8565b915081905095945050505050565b5f602082019050613b685f830184612c07565b92915050565b5f81519050613b7c816121c7565b92915050565b5f60208284031215613b9757613b96612109565b5b5f613ba484828501613b6e565b9150509291505056fea2646970667358221220d11d79f6343658b60db6086196a722dfe9dda41d31f3e1af3b25404d489c2f7464736f6c634300081e0033","linkReferences":{}},"methodIdentifiers":{"SEND()":"1f5e1334","SEND_AND_COMPOSE()":"b21a33e4","allowInitializePath((uint32,bytes32,uint64))":"ff7bd03d","approvalRequired()":"9f68b964","combineOptions(uint32,uint16,bytes)":"bc70b354","endpoint()":"5e280f11","enforcedOptions(uint32,uint16)":"5535d461","isComposeMsgSender((uint32,bytes32,uint64),bytes,address)":"82413eac","isPeer(uint32,bytes32)":"5a0dfe4d","lzReceive((uint32,bytes32,uint64),bytes32,bytes,address,bytes)":"13137d65","lzReceiveAndRevert(((uint32,bytes32,uint64),uint32,address,bytes32,uint256,address,bytes,bytes)[])":"bd815db0","lzReceiveSimulate((uint32,bytes32,uint64),bytes32,bytes,address,bytes)":"d045a0dc","msgInspector()":"111ecdad","nextNonce(uint32,bytes32)":"7d25a05e","oApp()":"52ae2879","oAppVersion()":"17442b70","onftVersion()":"a72f5dd8","owner()":"8da5cb5b","peers(uint32)":"bb0b6a53","preCrime()":"b731ea0a","quoteSend((uint32,bytes32,uint256,bytes,bytes,bytes),bool)":"c6414e7b","renounceOwnership()":"715018a6","send((uint32,bytes32,uint256,bytes,bytes,bytes),(uint256,uint256),address)":"21eb730b","setDelegate(address)":"ca5eb5e1","setEnforcedOptions((uint32,uint16,bytes)[])":"b98bd070","setMsgInspector(address)":"6fc1b31e","setPeer(uint32,bytes32)":"3400288b","setPreCrime(address)":"d4243885","token()":"fc0c546a","transferOwnership(address)":"f2fde38b"},"id":0}