{"abi":[{"type":"constructor","inputs":[{"name":"baseTokenURI_","type":"string","internalType":"string"}],"stateMutability":"nonpayable"},{"type":"function","name":"approve","inputs":[{"name":"to","type":"address","internalType":"address"},{"name":"tokenId","type":"uint256","internalType":"uint256"}],"outputs":[],"stateMutability":"nonpayable"},{"type":"function","name":"balanceOf","inputs":[{"name":"owner","type":"address","internalType":"address"}],"outputs":[{"name":"","type":"uint256","internalType":"uint256"}],"stateMutability":"view"},{"type":"function","name":"getApproved","inputs":[{"name":"tokenId","type":"uint256","internalType":"uint256"}],"outputs":[{"name":"","type":"address","internalType":"address"}],"stateMutability":"view"},{"type":"function","name":"isApprovedForAll","inputs":[{"name":"owner","type":"address","internalType":"address"},{"name":"operator","type":"address","internalType":"address"}],"outputs":[{"name":"","type":"bool","internalType":"bool"}],"stateMutability":"view"},{"type":"function","name":"mint","inputs":[],"outputs":[{"name":"","type":"uint256","internalType":"uint256"}],"stateMutability":"nonpayable"},{"type":"function","name":"name","inputs":[],"outputs":[{"name":"","type":"string","internalType":"string"}],"stateMutability":"view"},{"type":"function","name":"owner","inputs":[],"outputs":[{"name":"","type":"address","internalType":"address"}],"stateMutability":"view"},{"type":"function","name":"ownerOf","inputs":[{"name":"tokenId","type":"uint256","internalType":"uint256"}],"outputs":[{"name":"","type":"address","internalType":"address"}],"stateMutability":"view"},{"type":"function","name":"renounceOwnership","inputs":[],"outputs":[],"stateMutability":"nonpayable"},{"type":"function","name":"safeTransferFrom","inputs":[{"name":"from","type":"address","internalType":"address"},{"name":"to","type":"address","internalType":"address"},{"name":"tokenId","type":"uint256","internalType":"uint256"}],"outputs":[],"stateMutability":"nonpayable"},{"type":"function","name":"safeTransferFrom","inputs":[{"name":"from","type":"address","internalType":"address"},{"name":"to","type":"address","internalType":"address"},{"name":"tokenId","type":"uint256","internalType":"uint256"},{"name":"data","type":"bytes","internalType":"bytes"}],"outputs":[],"stateMutability":"nonpayable"},{"type":"function","name":"setApprovalForAll","inputs":[{"name":"operator","type":"address","internalType":"address"},{"name":"approved","type":"bool","internalType":"bool"}],"outputs":[],"stateMutability":"nonpayable"},{"type":"function","name":"setBaseTokenURI","inputs":[{"name":"newBaseURI","type":"string","internalType":"string"}],"outputs":[],"stateMutability":"nonpayable"},{"type":"function","name":"setTokenURI","inputs":[{"name":"tokenId","type":"uint256","internalType":"uint256"},{"name":"uri","type":"string","internalType":"string"}],"outputs":[],"stateMutability":"nonpayable"},{"type":"function","name":"setTokenURIBatch","inputs":[{"name":"tokenIds","type":"uint256[]","internalType":"uint256[]"},{"name":"uris","type":"string[]","internalType":"string[]"}],"outputs":[],"stateMutability":"nonpayable"},{"type":"function","name":"supportsInterface","inputs":[{"name":"interfaceId","type":"bytes4","internalType":"bytes4"}],"outputs":[{"name":"","type":"bool","internalType":"bool"}],"stateMutability":"view"},{"type":"function","name":"symbol","inputs":[],"outputs":[{"name":"","type":"string","internalType":"string"}],"stateMutability":"view"},{"type":"function","name":"tokenURI","inputs":[{"name":"tokenId","type":"uint256","internalType":"uint256"}],"outputs":[{"name":"","type":"string","internalType":"string"}],"stateMutability":"view"},{"type":"function","name":"transferFrom","inputs":[{"name":"from","type":"address","internalType":"address"},{"name":"to","type":"address","internalType":"address"},{"name":"tokenId","type":"uint256","internalType":"uint256"}],"outputs":[],"stateMutability":"nonpayable"},{"type":"function","name":"transferOwnership","inputs":[{"name":"newOwner","type":"address","internalType":"address"}],"outputs":[],"stateMutability":"nonpayable"},{"type":"event","name":"Approval","inputs":[{"name":"owner","type":"address","indexed":true,"internalType":"address"},{"name":"approved","type":"address","indexed":true,"internalType":"address"},{"name":"tokenId","type":"uint256","indexed":true,"internalType":"uint256"}],"anonymous":false},{"type":"event","name":"ApprovalForAll","inputs":[{"name":"owner","type":"address","indexed":true,"internalType":"address"},{"name":"operator","type":"address","indexed":true,"internalType":"address"},{"name":"approved","type":"bool","indexed":false,"internalType":"bool"}],"anonymous":false},{"type":"event","name":"OwnershipTransferred","inputs":[{"name":"previousOwner","type":"address","indexed":true,"internalType":"address"},{"name":"newOwner","type":"address","indexed":true,"internalType":"address"}],"anonymous":false},{"type":"event","name":"Transfer","inputs":[{"name":"from","type":"address","indexed":true,"internalType":"address"},{"name":"to","type":"address","indexed":true,"internalType":"address"},{"name":"tokenId","type":"uint256","indexed":true,"internalType":"uint256"}],"anonymous":false},{"type":"error","name":"ERC721IncorrectOwner","inputs":[{"name":"sender","type":"address","internalType":"address"},{"name":"tokenId","type":"uint256","internalType":"uint256"},{"name":"owner","type":"address","internalType":"address"}]},{"type":"error","name":"ERC721InsufficientApproval","inputs":[{"name":"operator","type":"address","internalType":"address"},{"name":"tokenId","type":"uint256","internalType":"uint256"}]},{"type":"error","name":"ERC721InvalidApprover","inputs":[{"name":"approver","type":"address","internalType":"address"}]},{"type":"error","name":"ERC721InvalidOperator","inputs":[{"name":"operator","type":"address","internalType":"address"}]},{"type":"error","name":"ERC721InvalidOwner","inputs":[{"name":"owner","type":"address","internalType":"address"}]},{"type":"error","name":"ERC721InvalidReceiver","inputs":[{"name":"receiver","type":"address","internalType":"address"}]},{"type":"error","name":"ERC721InvalidSender","inputs":[{"name":"sender","type":"address","internalType":"address"}]},{"type":"error","name":"ERC721NonexistentToken","inputs":[{"name":"tokenId","type":"uint256","internalType":"uint256"}]},{"type":"error","name":"OwnableInvalidOwner","inputs":[{"name":"owner","type":"address","internalType":"address"}]},{"type":"error","name":"OwnableUnauthorizedAccount","inputs":[{"name":"account","type":"address","internalType":"address"}]}],"bytecode":{"object":"0x608060405234801561000f575f5ffd5b506040516131803803806131808339818101604052810190610031919061036d565b336040518060400160405280601081526020017f47616c6163746963204b697474696573000000000000000000000000000000008152506040518060400160405280600681526020017f474b495454590000000000000000000000000000000000000000000000000000815250815f90816100ac91906105c4565b5080600190816100bc91906105c4565b5050505f73ffffffffffffffffffffffffffffffffffffffff168173ffffffffffffffffffffffffffffffffffffffff160361012f575f6040517f1e4fbdf700000000000000000000000000000000000000000000000000000000815260040161012691906106d2565b60405180910390fd5b61013e8161015d60201b60201c565b506001600781905550806008908161015691906105c4565b50506106eb565b5f60065f9054906101000a900473ffffffffffffffffffffffffffffffffffffffff1690508160065f6101000a81548173ffffffffffffffffffffffffffffffffffffffff021916908373ffffffffffffffffffffffffffffffffffffffff1602179055508173ffffffffffffffffffffffffffffffffffffffff168173ffffffffffffffffffffffffffffffffffffffff167f8be0079c531659141344cd1fd0a4f28419497f9722a3daafe3b4186f6b6457e060405160405180910390a35050565b5f604051905090565b5f5ffd5b5f5ffd5b5f5ffd5b5f5ffd5b5f601f19601f8301169050919050565b7f4e487b71000000000000000000000000000000000000000000000000000000005f52604160045260245ffd5b61027f82610239565b810181811067ffffffffffffffff8211171561029e5761029d610249565b5b80604052505050565b5f6102b0610220565b90506102bc8282610276565b919050565b5f67ffffffffffffffff8211156102db576102da610249565b5b6102e482610239565b9050602081019050919050565b8281835e5f83830152505050565b5f61031161030c846102c1565b6102a7565b90508281526020810184848401111561032d5761032c610235565b5b6103388482856102f1565b509392505050565b5f82601f83011261035457610353610231565b5b81516103648482602086016102ff565b91505092915050565b5f6020828403121561038257610381610229565b5b5f82015167ffffffffffffffff81111561039f5761039e61022d565b5b6103ab84828501610340565b91505092915050565b5f81519050919050565b7f4e487b71000000000000000000000000000000000000000000000000000000005f52602260045260245ffd5b5f600282049050600182168061040257607f821691505b602082108103610415576104146103be565b5b50919050565b5f819050815f5260205f209050919050565b5f6020601f8301049050919050565b5f82821b905092915050565b5f600883026104777fffffffffffffffffffffffffffffffffffffffffffffffffffffffffffffffff8261043c565b610481868361043c565b95508019841693508086168417925050509392505050565b5f819050919050565b5f819050919050565b5f6104c56104c06104bb84610499565b6104a2565b610499565b9050919050565b5f819050919050565b6104de836104ab565b6104f26104ea826104cc565b848454610448565b825550505050565b5f5f905090565b6105096104fa565b6105148184846104d5565b505050565b5b818110156105375761052c5f82610501565b60018101905061051a565b5050565b601f82111561057c5761054d8161041b565b6105568461042d565b81016020851015610565578190505b6105796105718561042d565b830182610519565b50505b505050565b5f82821c905092915050565b5f61059c5f1984600802610581565b1980831691505092915050565b5f6105b4838361058d565b9150826002028217905092915050565b6105cd826103b4565b67ffffffffffffffff8111156105e6576105e5610249565b5b6105f082546103eb565b6105fb82828561053b565b5f60209050601f83116001811461062c575f841561061a578287015190505b61062485826105a9565b86555061068b565b601f19841661063a8661041b565b5f5b828110156106615784890151825560018201915060208501945060208101905061063c565b8683101561067e578489015161067a601f89168261058d565b8355505b6001600288020188555050505b505050505050565b5f73ffffffffffffffffffffffffffffffffffffffff82169050919050565b5f6106bc82610693565b9050919050565b6106cc816106b2565b82525050565b5f6020820190506106e55f8301846106c3565b92915050565b612a88806106f85f395ff3fe608060405234801561000f575f5ffd5b506004361061012a575f3560e01c80636352211e116100ab578063a22cb4651161006f578063a22cb46514610318578063b88d4fde14610334578063c87b56dd14610350578063e985e9c514610380578063f2fde38b146103b05761012a565b80636352211e1461027257806370a08231146102a2578063715018a6146102d25780638da5cb5b146102dc57806395d89b41146102fa5761012a565b8063162094c4116100f2578063162094c4146101e657806323b872dd1461020257806330176e131461021e57806342842e0e1461023a5780634bb99351146102565761012a565b806301ffc9a71461012e57806306fdde031461015e578063081812fc1461017c578063095ea7b3146101ac5780631249c58b146101c8575b5f5ffd5b61014860048036038101906101439190611cc4565b6103cc565b6040516101559190611d09565b60405180910390f35b6101666104ad565b6040516101739190611d92565b60405180910390f35b61019660048036038101906101919190611de5565b61053c565b6040516101a39190611e4f565b60405180910390f35b6101c660048036038101906101c19190611e92565b610557565b005b6101d061056d565b6040516101dd9190611edf565b60405180910390f35b61020060048036038101906101fb9190611f59565b61059e565b005b61021c60048036038101906102179190611fb6565b610642565b005b61023860048036038101906102339190612006565b610741565b005b610254600480360381019061024f9190611fb6565b61075f565b005b610270600480360381019061026b91906120fb565b61077e565b005b61028c60048036038101906102879190611de5565b6108de565b6040516102999190611e4f565b60405180910390f35b6102bc60048036038101906102b79190612179565b6108ef565b6040516102c99190611edf565b60405180910390f35b6102da6109a5565b005b6102e46109b8565b6040516102f19190611e4f565b60405180910390f35b6103026109e0565b60405161030f9190611d92565b60405180910390f35b610332600480360381019061032d91906121ce565b610a70565b005b61034e60048036038101906103499190612334565b610a86565b005b61036a60048036038101906103659190611de5565b610aab565b6040516103779190611d92565b60405180910390f35b61039a600480360381019061039591906123b4565b610be2565b6040516103a79190611d09565b60405180910390f35b6103ca60048036038101906103c59190612179565b610c70565b005b5f7f80ac58cd000000000000000000000000000000000000000000000000000000007bffffffffffffffffffffffffffffffffffffffffffffffffffffffff1916827bffffffffffffffffffffffffffffffffffffffffffffffffffffffff1916148061049657507f5b5e139f000000000000000000000000000000000000000000000000000000007bffffffffffffffffffffffffffffffffffffffffffffffffffffffff1916827bffffffffffffffffffffffffffffffffffffffffffffffffffffffff1916145b806104a657506104a582610cf4565b5b9050919050565b60605f80546104bb9061241f565b80601f01602080910402602001604051908101604052809291908181526020018280546104e79061241f565b80156105325780601f1061050957610100808354040283529160200191610532565b820191905f5260205f20905b81548152906001019060200180831161051557829003601f168201915b5050505050905090565b5f61054682610d5d565b5061055082610de3565b9050919050565b6105698282610564610e1c565b610e23565b5050565b5f5f6007549050600160075f828254610586919061247c565b925050819055506105973382610e35565b8091505090565b6105a6610e52565b5f73ffffffffffffffffffffffffffffffffffffffff166105c6846108de565b73ffffffffffffffffffffffffffffffffffffffff160361061c576040517f08c379a0000000000000000000000000000000000000000000000000000000008152600401610613906124f9565b60405180910390fd5b818160095f8681526020019081526020015f20918261063c9291906126c1565b50505050565b5f73ffffffffffffffffffffffffffffffffffffffff168273ffffffffffffffffffffffffffffffffffffffff16036106b2575f6040517f64a0ae920000000000000000000000000000000000000000000000000000000081526004016106a99190611e4f565b60405180910390fd5b5f6106c583836106c0610e1c565b610ed9565b90508373ffffffffffffffffffffffffffffffffffffffff168173ffffffffffffffffffffffffffffffffffffffff161461073b578382826040517f64283d7b0000000000000000000000000000000000000000000000000000000081526004016107329392919061278e565b60405180910390fd5b50505050565b610749610e52565b81816008918261075a9291906126c1565b505050565b61077983838360405180602001604052805f815250610a86565b505050565b610786610e52565b8181905084849050146107ce576040517f08c379a00000000000000000000000000000000000000000000000000000000081526004016107c59061280d565b60405180910390fd5b5f5f90505b848490508110156108d7575f73ffffffffffffffffffffffffffffffffffffffff1661081786868481811061080b5761080a61282b565b5b905060200201356108de565b73ffffffffffffffffffffffffffffffffffffffff160361086d576040517f08c379a0000000000000000000000000000000000000000000000000000000008152600401610864906124f9565b60405180910390fd5b8282828181106108805761087f61282b565b5b90506020028101906108929190612864565b60095f8888868181106108a8576108a761282b565b5b9050602002013581526020019081526020015f2091826108c99291906126c1565b5080806001019150506107d3565b5050505050565b5f6108e882610d5d565b9050919050565b5f5f73ffffffffffffffffffffffffffffffffffffffff168273ffffffffffffffffffffffffffffffffffffffff1603610960575f6040517f89c62b640000000000000000000000000000000000000000000000000000000081526004016109579190611e4f565b60405180910390fd5b60035f8373ffffffffffffffffffffffffffffffffffffffff1673ffffffffffffffffffffffffffffffffffffffff1681526020019081526020015f20549050919050565b6109ad610e52565b6109b65f6110e4565b565b5f60065f9054906101000a900473ffffffffffffffffffffffffffffffffffffffff16905090565b6060600180546109ef9061241f565b80601f0160208091040260200160405190810160405280929190818152602001828054610a1b9061241f565b8015610a665780601f10610a3d57610100808354040283529160200191610a66565b820191905f5260205f20905b815481529060010190602001808311610a4957829003601f168201915b5050505050905090565b610a82610a7b610e1c565b83836111a7565b5050565b610a91848484610642565b610aa5610a9c610e1c565b85858585611310565b50505050565b60605f73ffffffffffffffffffffffffffffffffffffffff16610acd836108de565b73ffffffffffffffffffffffffffffffffffffffff1603610b23576040517f08c379a0000000000000000000000000000000000000000000000000000000008152600401610b1a906124f9565b60405180910390fd5b5f60095f8481526020019081526020015f208054610b409061241f565b80601f0160208091040260200160405190810160405280929190818152602001828054610b6c9061241f565b8015610bb75780601f10610b8e57610100808354040283529160200191610bb7565b820191905f5260205f20905b815481529060010190602001808311610b9a57829003601f168201915b505050505090505f81511115610bd05780915050610bdd565b610bd9836114bc565b9150505b919050565b5f60055f8473ffffffffffffffffffffffffffffffffffffffff1673ffffffffffffffffffffffffffffffffffffffff1681526020019081526020015f205f8373ffffffffffffffffffffffffffffffffffffffff1673ffffffffffffffffffffffffffffffffffffffff1681526020019081526020015f205f9054906101000a900460ff16905092915050565b610c78610e52565b5f73ffffffffffffffffffffffffffffffffffffffff168173ffffffffffffffffffffffffffffffffffffffff1603610ce8575f6040517f1e4fbdf7000000000000000000000000000000000000000000000000000000008152600401610cdf9190611e4f565b60405180910390fd5b610cf1816110e4565b50565b5f7f01ffc9a7000000000000000000000000000000000000000000000000000000007bffffffffffffffffffffffffffffffffffffffffffffffffffffffff1916827bffffffffffffffffffffffffffffffffffffffffffffffffffffffff1916149050919050565b5f5f610d6883611522565b90505f73ffffffffffffffffffffffffffffffffffffffff168173ffffffffffffffffffffffffffffffffffffffff1603610dda57826040517f7e273289000000000000000000000000000000000000000000000000000000008152600401610dd19190611edf565b60405180910390fd5b80915050919050565b5f60045f8381526020019081526020015f205f9054906101000a900473ffffffffffffffffffffffffffffffffffffffff169050919050565b5f33905090565b610e30838383600161155b565b505050565b610e4e828260405180602001604052805f81525061171a565b5050565b610e5a610e1c565b73ffffffffffffffffffffffffffffffffffffffff16610e786109b8565b73ffffffffffffffffffffffffffffffffffffffff1614610ed757610e9b610e1c565b6040517f118cdaa7000000000000000000000000000000000000000000000000000000008152600401610ece9190611e4f565b60405180910390fd5b565b5f5f610ee484611522565b90505f73ffffffffffffffffffffffffffffffffffffffff168373ffffffffffffffffffffffffffffffffffffffff1614610f2557610f2481848661173d565b5b5f73ffffffffffffffffffffffffffffffffffffffff168173ffffffffffffffffffffffffffffffffffffffff1614610fb057610f645f855f5f61155b565b600160035f8373ffffffffffffffffffffffffffffffffffffffff1673ffffffffffffffffffffffffffffffffffffffff1681526020019081526020015f205f82825403925050819055505b5f73ffffffffffffffffffffffffffffffffffffffff168573ffffffffffffffffffffffffffffffffffffffff161461102f57600160035f8773ffffffffffffffffffffffffffffffffffffffff1673ffffffffffffffffffffffffffffffffffffffff1681526020019081526020015f205f82825401925050819055505b8460025f8681526020019081526020015f205f6101000a81548173ffffffffffffffffffffffffffffffffffffffff021916908373ffffffffffffffffffffffffffffffffffffffff160217905550838573ffffffffffffffffffffffffffffffffffffffff168273ffffffffffffffffffffffffffffffffffffffff167fddf252ad1be2c89b69c2b068fc378daa952ba7f163c4a11628f55a4df523b3ef60405160405180910390a4809150509392505050565b5f60065f9054906101000a900473ffffffffffffffffffffffffffffffffffffffff1690508160065f6101000a81548173ffffffffffffffffffffffffffffffffffffffff021916908373ffffffffffffffffffffffffffffffffffffffff1602179055508173ffffffffffffffffffffffffffffffffffffffff168173ffffffffffffffffffffffffffffffffffffffff167f8be0079c531659141344cd1fd0a4f28419497f9722a3daafe3b4186f6b6457e060405160405180910390a35050565b5f73ffffffffffffffffffffffffffffffffffffffff168273ffffffffffffffffffffffffffffffffffffffff160361121757816040517f5b08ba1800000000000000000000000000000000000000000000000000000000815260040161120e9190611e4f565b60405180910390fd5b8060055f8573ffffffffffffffffffffffffffffffffffffffff1673ffffffffffffffffffffffffffffffffffffffff1681526020019081526020015f205f8473ffffffffffffffffffffffffffffffffffffffff1673ffffffffffffffffffffffffffffffffffffffff1681526020019081526020015f205f6101000a81548160ff0219169083151502179055508173ffffffffffffffffffffffffffffffffffffffff168373ffffffffffffffffffffffffffffffffffffffff167f17307eab39ab6107e8899845ad3d59bd9653f200f220920489ca2b5937696c31836040516113039190611d09565b60405180910390a3505050565b5f8373ffffffffffffffffffffffffffffffffffffffff163b11156114b5578273ffffffffffffffffffffffffffffffffffffffff1663150b7a02868685856040518563ffffffff1660e01b815260040161136e9493929190612918565b6020604051808303815f875af19250505080156113a957506040513d601f19601f820116820180604052508101906113a69190612976565b60015b61142a573d805f81146113d7576040519150601f19603f3d011682016040523d82523d5f602084013e6113dc565b606091505b505f81510361142257836040517f64a0ae920000000000000000000000000000000000000000000000000000000081526004016114199190611e4f565b60405180910390fd5b805160208201fd5b63150b7a0260e01b7bffffffffffffffffffffffffffffffffffffffffffffffffffffffff1916817bffffffffffffffffffffffffffffffffffffffffffffffffffffffff1916146114b357836040517f64a0ae920000000000000000000000000000000000000000000000000000000081526004016114aa9190611e4f565b60405180910390fd5b505b5050505050565b60606114c782610d5d565b505f6114d1611800565b90505f8151116114ef5760405180602001604052805f81525061151a565b806114f984611890565b60405160200161150a9291906129db565b6040516020818303038152906040525b915050919050565b5f60025f8381526020019081526020015f205f9054906101000a900473ffffffffffffffffffffffffffffffffffffffff169050919050565b808061159357505f73ffffffffffffffffffffffffffffffffffffffff168273ffffffffffffffffffffffffffffffffffffffff1614155b156116c5575f6115a284610d5d565b90505f73ffffffffffffffffffffffffffffffffffffffff168373ffffffffffffffffffffffffffffffffffffffff161415801561160c57508273ffffffffffffffffffffffffffffffffffffffff168173ffffffffffffffffffffffffffffffffffffffff1614155b801561161f575061161d8184610be2565b155b1561166157826040517fa9fbf51f0000000000000000000000000000000000000000000000000000000081526004016116589190611e4f565b60405180910390fd5b81156116c357838573ffffffffffffffffffffffffffffffffffffffff168273ffffffffffffffffffffffffffffffffffffffff167f8c5be1e5ebec7d5bd14f71427d1e84f3dd0314c0f7b2291e5b200ac8c7c3b92560405160405180910390a45b505b8360045f8581526020019081526020015f205f6101000a81548173ffffffffffffffffffffffffffffffffffffffff021916908373ffffffffffffffffffffffffffffffffffffffff16021790555050505050565b611724838361195a565b61173861172f610e1c565b5f858585611310565b505050565b611748838383611a4d565b6117fb575f73ffffffffffffffffffffffffffffffffffffffff168373ffffffffffffffffffffffffffffffffffffffff16036117bc57806040517f7e2732890000000000000000000000000000000000000000000000000000000081526004016117b39190611edf565b60405180910390fd5b81816040517f177e802f0000000000000000000000000000000000000000000000000000000081526004016117f29291906129fe565b60405180910390fd5b505050565b60606008805461180f9061241f565b80601f016020809104026020016040519081016040528092919081815260200182805461183b9061241f565b80156118865780601f1061185d57610100808354040283529160200191611886565b820191905f5260205f20905b81548152906001019060200180831161186957829003601f168201915b5050505050905090565b60605f600161189e84611b0d565b0190505f8167ffffffffffffffff8111156118bc576118bb612210565b5b6040519080825280601f01601f1916602001820160405280156118ee5781602001600182028036833780820191505090505b5090505f82602083010190505b60011561194f578080600190039150507f3031323334353637383961626364656600000000000000000000000000000000600a86061a8153600a858161194457611943612a25565b5b0494505f85036118fb575b819350505050919050565b5f73ffffffffffffffffffffffffffffffffffffffff168273ffffffffffffffffffffffffffffffffffffffff16036119ca575f6040517f64a0ae920000000000000000000000000000000000000000000000000000000081526004016119c19190611e4f565b60405180910390fd5b5f6119d683835f610ed9565b90505f73ffffffffffffffffffffffffffffffffffffffff168173ffffffffffffffffffffffffffffffffffffffff1614611a48575f6040517f73c6ac6e000000000000000000000000000000000000000000000000000000008152600401611a3f9190611e4f565b60405180910390fd5b505050565b5f5f73ffffffffffffffffffffffffffffffffffffffff168373ffffffffffffffffffffffffffffffffffffffff1614158015611b0457508273ffffffffffffffffffffffffffffffffffffffff168473ffffffffffffffffffffffffffffffffffffffff161480611ac55750611ac48484610be2565b5b80611b0357508273ffffffffffffffffffffffffffffffffffffffff16611aeb83610de3565b73ffffffffffffffffffffffffffffffffffffffff16145b5b90509392505050565b5f5f5f90507a184f03e93ff9f4daa797ed6e38ed64bf6a1f0100000000000000008310611b69577a184f03e93ff9f4daa797ed6e38ed64bf6a1f0100000000000000008381611b5f57611b5e612a25565b5b0492506040810190505b6d04ee2d6d415b85acef81000000008310611ba6576d04ee2d6d415b85acef81000000008381611b9c57611b9b612a25565b5b0492506020810190505b662386f26fc100008310611bd557662386f26fc100008381611bcb57611bca612a25565b5b0492506010810190505b6305f5e1008310611bfe576305f5e1008381611bf457611bf3612a25565b5b0492506008810190505b6127108310611c23576127108381611c1957611c18612a25565b5b0492506004810190505b60648310611c465760648381611c3c57611c3b612a25565b5b0492506002810190505b600a8310611c55576001810190505b80915050919050565b5f604051905090565b5f5ffd5b5f5ffd5b5f7fffffffff0000000000000000000000000000000000000000000000000000000082169050919050565b611ca381611c6f565b8114611cad575f5ffd5b50565b5f81359050611cbe81611c9a565b92915050565b5f60208284031215611cd957611cd8611c67565b5b5f611ce684828501611cb0565b91505092915050565b5f8115159050919050565b611d0381611cef565b82525050565b5f602082019050611d1c5f830184611cfa565b92915050565b5f81519050919050565b5f82825260208201905092915050565b8281835e5f83830152505050565b5f601f19601f8301169050919050565b5f611d6482611d22565b611d6e8185611d2c565b9350611d7e818560208601611d3c565b611d8781611d4a565b840191505092915050565b5f6020820190508181035f830152611daa8184611d5a565b905092915050565b5f819050919050565b611dc481611db2565b8114611dce575f5ffd5b50565b5f81359050611ddf81611dbb565b92915050565b5f60208284031215611dfa57611df9611c67565b5b5f611e0784828501611dd1565b91505092915050565b5f73ffffffffffffffffffffffffffffffffffffffff82169050919050565b5f611e3982611e10565b9050919050565b611e4981611e2f565b82525050565b5f602082019050611e625f830184611e40565b92915050565b611e7181611e2f565b8114611e7b575f5ffd5b50565b5f81359050611e8c81611e68565b92915050565b5f5f60408385031215611ea857611ea7611c67565b5b5f611eb585828601611e7e565b9250506020611ec685828601611dd1565b9150509250929050565b611ed981611db2565b82525050565b5f602082019050611ef25f830184611ed0565b92915050565b5f5ffd5b5f5ffd5b5f5ffd5b5f5f83601f840112611f1957611f18611ef8565b5b8235905067ffffffffffffffff811115611f3657611f35611efc565b5b602083019150836001820283011115611f5257611f51611f00565b5b9250929050565b5f5f5f60408486031215611f7057611f6f611c67565b5b5f611f7d86828701611dd1565b935050602084013567ffffffffffffffff811115611f9e57611f9d611c6b565b5b611faa86828701611f04565b92509250509250925092565b5f5f5f60608486031215611fcd57611fcc611c67565b5b5f611fda86828701611e7e565b9350506020611feb86828701611e7e565b9250506040611ffc86828701611dd1565b9150509250925092565b5f5f6020838503121561201c5761201b611c67565b5b5f83013567ffffffffffffffff81111561203957612038611c6b565b5b61204585828601611f04565b92509250509250929050565b5f5f83601f84011261206657612065611ef8565b5b8235905067ffffffffffffffff81111561208357612082611efc565b5b60208301915083602082028301111561209f5761209e611f00565b5b9250929050565b5f5f83601f8401126120bb576120ba611ef8565b5b8235905067ffffffffffffffff8111156120d8576120d7611efc565b5b6020830191508360208202830111156120f4576120f3611f00565b5b9250929050565b5f5f5f5f6040858703121561211357612112611c67565b5b5f85013567ffffffffffffffff8111156121305761212f611c6b565b5b61213c87828801612051565b9450945050602085013567ffffffffffffffff81111561215f5761215e611c6b565b5b61216b878288016120a6565b925092505092959194509250565b5f6020828403121561218e5761218d611c67565b5b5f61219b84828501611e7e565b91505092915050565b6121ad81611cef565b81146121b7575f5ffd5b50565b5f813590506121c8816121a4565b92915050565b5f5f604083850312156121e4576121e3611c67565b5b5f6121f185828601611e7e565b9250506020612202858286016121ba565b9150509250929050565b5f5ffd5b7f4e487b71000000000000000000000000000000000000000000000000000000005f52604160045260245ffd5b61224682611d4a565b810181811067ffffffffffffffff8211171561226557612264612210565b5b80604052505050565b5f612277611c5e565b9050612283828261223d565b919050565b5f67ffffffffffffffff8211156122a2576122a1612210565b5b6122ab82611d4a565b9050602081019050919050565b828183375f83830152505050565b5f6122d86122d384612288565b61226e565b9050828152602081018484840111156122f4576122f361220c565b5b6122ff8482856122b8565b509392505050565b5f82601f83011261231b5761231a611ef8565b5b813561232b8482602086016122c6565b91505092915050565b5f5f5f5f6080858703121561234c5761234b611c67565b5b5f61235987828801611e7e565b945050602061236a87828801611e7e565b935050604061237b87828801611dd1565b925050606085013567ffffffffffffffff81111561239c5761239b611c6b565b5b6123a887828801612307565b91505092959194509250565b5f5f604083850312156123ca576123c9611c67565b5b5f6123d785828601611e7e565b92505060206123e885828601611e7e565b9150509250929050565b7f4e487b71000000000000000000000000000000000000000000000000000000005f52602260045260245ffd5b5f600282049050600182168061243657607f821691505b602082108103612449576124486123f2565b5b50919050565b7f4e487b71000000000000000000000000000000000000000000000000000000005f52601160045260245ffd5b5f61248682611db2565b915061249183611db2565b92508282019050808211156124a9576124a861244f565b5b92915050565b7f546f6b656e20646f6573206e6f742065786973740000000000000000000000005f82015250565b5f6124e3601483611d2c565b91506124ee826124af565b602082019050919050565b5f6020820190508181035f830152612510816124d7565b9050919050565b5f82905092915050565b5f819050815f5260205f209050919050565b5f6020601f8301049050919050565b5f82821b905092915050565b5f6008830261257d7fffffffffffffffffffffffffffffffffffffffffffffffffffffffffffffffff82612542565b6125878683612542565b95508019841693508086168417925050509392505050565b5f819050919050565b5f6125c26125bd6125b884611db2565b61259f565b611db2565b9050919050565b5f819050919050565b6125db836125a8565b6125ef6125e7826125c9565b84845461254e565b825550505050565b5f5f905090565b6126066125f7565b6126118184846125d2565b505050565b5b81811015612634576126295f826125fe565b600181019050612617565b5050565b601f8211156126795761264a81612521565b61265384612533565b81016020851015612662578190505b61267661266e85612533565b830182612616565b50505b505050565b5f82821c905092915050565b5f6126995f198460080261267e565b1980831691505092915050565b5f6126b1838361268a565b9150826002028217905092915050565b6126cb8383612517565b67ffffffffffffffff8111156126e4576126e3612210565b5b6126ee825461241f565b6126f9828285612638565b5f601f831160018114612726575f8415612714578287013590505b61271e85826126a6565b865550612785565b601f19841661273486612521565b5f5b8281101561275b57848901358255600182019150602085019450602081019050612736565b868310156127785784890135612774601f89168261268a565b8355505b6001600288020188555050505b50505050505050565b5f6060820190506127a15f830186611e40565b6127ae6020830185611ed0565b6127bb6040830184611e40565b949350505050565b7f4172726179206c656e677468206d69736d6174636800000000000000000000005f82015250565b5f6127f7601583611d2c565b9150612802826127c3565b602082019050919050565b5f6020820190508181035f830152612824816127eb565b9050919050565b7f4e487b71000000000000000000000000000000000000000000000000000000005f52603260045260245ffd5b5f5ffd5b5f5ffd5b5f5ffd5b5f5f833560016020038436030381126128805761287f612858565b5b80840192508235915067ffffffffffffffff8211156128a2576128a161285c565b5b6020830192506001820236038313156128be576128bd612860565b5b509250929050565b5f81519050919050565b5f82825260208201905092915050565b5f6128ea826128c6565b6128f481856128d0565b9350612904818560208601611d3c565b61290d81611d4a565b840191505092915050565b5f60808201905061292b5f830187611e40565b6129386020830186611e40565b6129456040830185611ed0565b818103606083015261295781846128e0565b905095945050505050565b5f8151905061297081611c9a565b92915050565b5f6020828403121561298b5761298a611c67565b5b5f61299884828501612962565b91505092915050565b5f81905092915050565b5f6129b582611d22565b6129bf81856129a1565b93506129cf818560208601611d3c565b80840191505092915050565b5f6129e682856129ab565b91506129f282846129ab565b91508190509392505050565b5f604082019050612a115f830185611e40565b612a1e6020830184611ed0565b9392505050565b7f4e487b71000000000000000000000000000000000000000000000000000000005f52601260045260245ffdfea264697066735822122013e207af58fce7a5a6f5f882324b4971cc7508ee854b75f18ec1f3325e8c302a64736f6c634300081e0033","linkReferences":{}},"methodIdentifiers":{"approve(address,uint256)":"095ea7b3","balanceOf(address)":"70a08231","getApproved(uint256)":"081812fc","isApprovedForAll(address,address)":"e985e9c5","mint()":"1249c58b","name()":"06fdde03","owner()":"8da5cb5b","ownerOf(uint256)":"6352211e","renounceOwnership()":"715018a6","safeTransferFrom(address,address,uint256)":"42842e0e","safeTransferFrom(address,address,uint256,bytes)":"b88d4fde","setApprovalForAll(address,bool)":"a22cb465","setBaseTokenURI(string)":"30176e13","setTokenURI(uint256,string)":"162094c4","setTokenURIBatch(uint256[],string[])":"4bb99351","supportsInterface(bytes4)":"01ffc9a7","symbol()":"95d89b41","tokenURI(uint256)":"c87b56dd","transferFrom(address,address,uint256)":"23b872dd","transferOwnership(address)":"f2fde38b"},"id":0}