{"abi":[{"type":"constructor","inputs":[{"name":"_lzEndpoint","type":"address","internalType":"address"},{"name":"_delegate","type":"address","internalType":"address"}],"stateMutability":"nonpayable"},{"type":"function","name":"SEND","inputs":[],"outputs":[{"name":"","type":"uint16","internalType":"uint16"}],"stateMutability":"view"},{"type":"function","name":"SEND_AND_COMPOSE","inputs":[],"outputs":[{"name":"","type":"uint16","internalType":"uint16"}],"stateMutability":"view"},{"type":"function","name":"allowInitializePath","inputs":[{"name":"origin","type":"tuple","internalType":"struct Origin","components":[{"name":"srcEid","type":"uint32","internalType":"uint32"},{"name":"sender","type":"bytes32","internalType":"bytes32"},{"name":"nonce","type":"uint64","internalType":"uint64"}]}],"outputs":[{"name":"","type":"bool","internalType":"bool"}],"stateMutability":"view"},{"type":"function","name":"approvalRequired","inputs":[],"outputs":[{"name":"","type":"bool","internalType":"bool"}],"stateMutability":"pure"},{"type":"function","name":"approve","inputs":[{"name":"to","type":"address","internalType":"address"},{"name":"tokenId","type":"uint256","internalType":"uint256"}],"outputs":[],"stateMutability":"nonpayable"},{"type":"function","name":"balanceOf","inputs":[{"name":"owner","type":"address","internalType":"address"}],"outputs":[{"name":"","type":"uint256","internalType":"uint256"}],"stateMutability":"view"},{"type":"function","name":"combineOptions","inputs":[{"name":"_eid","type":"uint32","internalType":"uint32"},{"name":"_msgType","type":"uint16","internalType":"uint16"},{"name":"_extraOptions","type":"bytes","internalType":"bytes"}],"outputs":[{"name":"","type":"bytes","internalType":"bytes"}],"stateMutability":"view"},{"type":"function","name":"endpoint","inputs":[],"outputs":[{"name":"","type":"address","internalType":"contract ILayerZeroEndpointV2"}],"stateMutability":"view"},{"type":"function","name":"enforcedOptions","inputs":[{"name":"eid","type":"uint32","internalType":"uint32"},{"name":"msgType","type":"uint16","internalType":"uint16"}],"outputs":[{"name":"enforcedOption","type":"bytes","internalType":"bytes"}],"stateMutability":"view"},{"type":"function","name":"getApproved","inputs":[{"name":"tokenId","type":"uint256","internalType":"uint256"}],"outputs":[{"name":"","type":"address","internalType":"address"}],"stateMutability":"view"},{"type":"function","name":"isApprovedForAll","inputs":[{"name":"owner","type":"address","internalType":"address"},{"name":"operator","type":"address","internalType":"address"}],"outputs":[{"name":"","type":"bool","internalType":"bool"}],"stateMutability":"view"},{"type":"function","name":"isComposeMsgSender","inputs":[{"name":"","type":"tuple","internalType":"struct Origin","components":[{"name":"srcEid","type":"uint32","internalType":"uint32"},{"name":"sender","type":"bytes32","internalType":"bytes32"},{"name":"nonce","type":"uint64","internalType":"uint64"}]},{"name":"","type":"bytes","internalType":"bytes"},{"name":"_sender","type":"address","internalType":"address"}],"outputs":[{"name":"","type":"bool","internalType":"bool"}],"stateMutability":"view"},{"type":"function","name":"isPeer","inputs":[{"name":"_eid","type":"uint32","internalType":"uint32"},{"name":"_peer","type":"bytes32","internalType":"bytes32"}],"outputs":[{"name":"","type":"bool","internalType":"bool"}],"stateMutability":"view"},{"type":"function","name":"lzReceive","inputs":[{"name":"_origin","type":"tuple","internalType":"struct Origin","components":[{"name":"srcEid","type":"uint32","internalType":"uint32"},{"name":"sender","type":"bytes32","internalType":"bytes32"},{"name":"nonce","type":"uint64","internalType":"uint64"}]},{"name":"_guid","type":"bytes32","internalType":"bytes32"},{"name":"_message","type":"bytes","internalType":"bytes"},{"name":"_executor","type":"address","internalType":"address"},{"name":"_extraData","type":"bytes","internalType":"bytes"}],"outputs":[],"stateMutability":"payable"},{"type":"function","name":"lzReceiveAndRevert","inputs":[{"name":"_packets","type":"tuple[]","internalType":"struct InboundPacket[]","components":[{"name":"origin","type":"tuple","internalType":"struct Origin","components":[{"name":"srcEid","type":"uint32","internalType":"uint32"},{"name":"sender","type":"bytes32","internalType":"bytes32"},{"name":"nonce","type":"uint64","internalType":"uint64"}]},{"name":"dstEid","type":"uint32","internalType":"uint32"},{"name":"receiver","type":"address","internalType":"address"},{"name":"guid","type":"bytes32","internalType":"bytes32"},{"name":"value","type":"uint256","internalType":"uint256"},{"name":"executor","type":"address","internalType":"address"},{"name":"message","type":"bytes","internalType":"bytes"},{"name":"extraData","type":"bytes","internalType":"bytes"}]}],"outputs":[],"stateMutability":"payable"},{"type":"function","name":"lzReceiveSimulate","inputs":[{"name":"_origin","type":"tuple","internalType":"struct Origin","components":[{"name":"srcEid","type":"uint32","internalType":"uint32"},{"name":"sender","type":"bytes32","internalType":"bytes32"},{"name":"nonce","type":"uint64","internalType":"uint64"}]},{"name":"_guid","type":"bytes32","internalType":"bytes32"},{"name":"_message","type":"bytes","internalType":"bytes"},{"name":"_executor","type":"address","internalType":"address"},{"name":"_extraData","type":"bytes","internalType":"bytes"}],"outputs":[],"stateMutability":"payable"},{"type":"function","name":"msgInspector","inputs":[],"outputs":[{"name":"","type":"address","internalType":"address"}],"stateMutability":"view"},{"type":"function","name":"name","inputs":[],"outputs":[{"name":"","type":"string","internalType":"string"}],"stateMutability":"view"},{"type":"function","name":"nextNonce","inputs":[{"name":"","type":"uint32","internalType":"uint32"},{"name":"","type":"bytes32","internalType":"bytes32"}],"outputs":[{"name":"nonce","type":"uint64","internalType":"uint64"}],"stateMutability":"view"},{"type":"function","name":"oApp","inputs":[],"outputs":[{"name":"","type":"address","internalType":"address"}],"stateMutability":"view"},{"type":"function","name":"oAppVersion","inputs":[],"outputs":[{"name":"senderVersion","type":"uint64","internalType":"uint64"},{"name":"receiverVersion","type":"uint64","internalType":"uint64"}],"stateMutability":"pure"},{"type":"function","name":"onftVersion","inputs":[],"outputs":[{"name":"interfaceId","type":"bytes4","internalType":"bytes4"},{"name":"version","type":"uint64","internalType":"uint64"}],"stateMutability":"pure"},{"type":"function","name":"owner","inputs":[],"outputs":[{"name":"","type":"address","internalType":"address"}],"stateMutability":"view"},{"type":"function","name":"ownerOf","inputs":[{"name":"tokenId","type":"uint256","internalType":"uint256"}],"outputs":[{"name":"","type":"address","internalType":"address"}],"stateMutability":"view"},{"type":"function","name":"peers","inputs":[{"name":"eid","type":"uint32","internalType":"uint32"}],"outputs":[{"name":"peer","type":"bytes32","internalType":"bytes32"}],"stateMutability":"view"},{"type":"function","name":"preCrime","inputs":[],"outputs":[{"name":"","type":"address","internalType":"address"}],"stateMutability":"view"},{"type":"function","name":"quoteSend","inputs":[{"name":"_sendParam","type":"tuple","internalType":"struct SendParam","components":[{"name":"dstEid","type":"uint32","internalType":"uint32"},{"name":"to","type":"bytes32","internalType":"bytes32"},{"name":"tokenId","type":"uint256","internalType":"uint256"},{"name":"extraOptions","type":"bytes","internalType":"bytes"},{"name":"composeMsg","type":"bytes","internalType":"bytes"},{"name":"onftCmd","type":"bytes","internalType":"bytes"}]},{"name":"_payInLzToken","type":"bool","internalType":"bool"}],"outputs":[{"name":"msgFee","type":"tuple","internalType":"struct MessagingFee","components":[{"name":"nativeFee","type":"uint256","internalType":"uint256"},{"name":"lzTokenFee","type":"uint256","internalType":"uint256"}]}],"stateMutability":"view"},{"type":"function","name":"renounceOwnership","inputs":[],"outputs":[],"stateMutability":"nonpayable"},{"type":"function","name":"safeTransferFrom","inputs":[{"name":"from","type":"address","internalType":"address"},{"name":"to","type":"address","internalType":"address"},{"name":"tokenId","type":"uint256","internalType":"uint256"}],"outputs":[],"stateMutability":"nonpayable"},{"type":"function","name":"safeTransferFrom","inputs":[{"name":"from","type":"address","internalType":"address"},{"name":"to","type":"address","internalType":"address"},{"name":"tokenId","type":"uint256","internalType":"uint256"},{"name":"data","type":"bytes","internalType":"bytes"}],"outputs":[],"stateMutability":"nonpayable"},{"type":"function","name":"send","inputs":[{"name":"_sendParam","type":"tuple","internalType":"struct SendParam","components":[{"name":"dstEid","type":"uint32","internalType":"uint32"},{"name":"to","type":"bytes32","internalType":"bytes32"},{"name":"tokenId","type":"uint256","internalType":"uint256"},{"name":"extraOptions","type":"bytes","internalType":"bytes"},{"name":"composeMsg","type":"bytes","internalType":"bytes"},{"name":"onftCmd","type":"bytes","internalType":"bytes"}]},{"name":"_fee","type":"tuple","internalType":"struct MessagingFee","components":[{"name":"nativeFee","type":"uint256","internalType":"uint256"},{"name":"lzTokenFee","type":"uint256","internalType":"uint256"}]},{"name":"_refundAddress","type":"address","internalType":"address"}],"outputs":[{"name":"msgReceipt","type":"tuple","internalType":"struct MessagingReceipt","components":[{"name":"guid","type":"bytes32","internalType":"bytes32"},{"name":"nonce","type":"uint64","internalType":"uint64"},{"name":"fee","type":"tuple","internalType":"struct MessagingFee","components":[{"name":"nativeFee","type":"uint256","internalType":"uint256"},{"name":"lzTokenFee","type":"uint256","internalType":"uint256"}]}]}],"stateMutability":"payable"},{"type":"function","name":"setApprovalForAll","inputs":[{"name":"operator","type":"address","internalType":"address"},{"name":"approved","type":"bool","internalType":"bool"}],"outputs":[],"stateMutability":"nonpayable"},{"type":"function","name":"setBaseURI","inputs":[{"name":"_baseTokenURI","type":"string","internalType":"string"}],"outputs":[],"stateMutability":"nonpayable"},{"type":"function","name":"setDelegate","inputs":[{"name":"_delegate","type":"address","internalType":"address"}],"outputs":[],"stateMutability":"nonpayable"},{"type":"function","name":"setEnforcedOptions","inputs":[{"name":"_enforcedOptions","type":"tuple[]","internalType":"struct EnforcedOptionParam[]","components":[{"name":"eid","type":"uint32","internalType":"uint32"},{"name":"msgType","type":"uint16","internalType":"uint16"},{"name":"options","type":"bytes","internalType":"bytes"}]}],"outputs":[],"stateMutability":"nonpayable"},{"type":"function","name":"setMsgInspector","inputs":[{"name":"_msgInspector","type":"address","internalType":"address"}],"outputs":[],"stateMutability":"nonpayable"},{"type":"function","name":"setPeer","inputs":[{"name":"_eid","type":"uint32","internalType":"uint32"},{"name":"_peer","type":"bytes32","internalType":"bytes32"}],"outputs":[],"stateMutability":"nonpayable"},{"type":"function","name":"setPreCrime","inputs":[{"name":"_preCrime","type":"address","internalType":"address"}],"outputs":[],"stateMutability":"nonpayable"},{"type":"function","name":"supportsInterface","inputs":[{"name":"interfaceId","type":"bytes4","internalType":"bytes4"}],"outputs":[{"name":"","type":"bool","internalType":"bool"}],"stateMutability":"view"},{"type":"function","name":"symbol","inputs":[],"outputs":[{"name":"","type":"string","internalType":"string"}],"stateMutability":"view"},{"type":"function","name":"token","inputs":[],"outputs":[{"name":"","type":"address","internalType":"address"}],"stateMutability":"view"},{"type":"function","name":"tokenURI","inputs":[{"name":"tokenId","type":"uint256","internalType":"uint256"}],"outputs":[{"name":"","type":"string","internalType":"string"}],"stateMutability":"view"},{"type":"function","name":"transferFrom","inputs":[{"name":"from","type":"address","internalType":"address"},{"name":"to","type":"address","internalType":"address"},{"name":"tokenId","type":"uint256","internalType":"uint256"}],"outputs":[],"stateMutability":"nonpayable"},{"type":"function","name":"transferOwnership","inputs":[{"name":"newOwner","type":"address","internalType":"address"}],"outputs":[],"stateMutability":"nonpayable"},{"type":"event","name":"Approval","inputs":[{"name":"owner","type":"address","indexed":true,"internalType":"address"},{"name":"approved","type":"address","indexed":true,"internalType":"address"},{"name":"tokenId","type":"uint256","indexed":true,"internalType":"uint256"}],"anonymous":false},{"type":"event","name":"ApprovalForAll","inputs":[{"name":"owner","type":"address","indexed":true,"internalType":"address"},{"name":"operator","type":"address","indexed":true,"internalType":"address"},{"name":"approved","type":"bool","indexed":false,"internalType":"bool"}],"anonymous":false},{"type":"event","name":"BaseURISet","inputs":[{"name":"baseURI","type":"string","indexed":false,"internalType":"string"}],"anonymous":false},{"type":"event","name":"EnforcedOptionSet","inputs":[{"name":"_enforcedOptions","type":"tuple[]","indexed":false,"internalType":"struct EnforcedOptionParam[]","components":[{"name":"eid","type":"uint32","internalType":"uint32"},{"name":"msgType","type":"uint16","internalType":"uint16"},{"name":"options","type":"bytes","internalType":"bytes"}]}],"anonymous":false},{"type":"event","name":"MsgInspectorSet","inputs":[{"name":"inspector","type":"address","indexed":false,"internalType":"address"}],"anonymous":false},{"type":"event","name":"ONFTReceived","inputs":[{"name":"guid","type":"bytes32","indexed":true,"internalType":"bytes32"},{"name":"srcEid","type":"uint32","indexed":false,"internalType":"uint32"},{"name":"toAddress","type":"address","indexed":true,"internalType":"address"},{"name":"tokenId","type":"uint256","indexed":false,"internalType":"uint256"}],"anonymous":false},{"type":"event","name":"ONFTSent","inputs":[{"name":"guid","type":"bytes32","indexed":true,"internalType":"bytes32"},{"name":"dstEid","type":"uint32","indexed":false,"internalType":"uint32"},{"name":"fromAddress","type":"address","indexed":true,"internalType":"address"},{"name":"tokenId","type":"uint256","indexed":false,"internalType":"uint256"}],"anonymous":false},{"type":"event","name":"OwnershipTransferred","inputs":[{"name":"previousOwner","type":"address","indexed":true,"internalType":"address"},{"name":"newOwner","type":"address","indexed":true,"internalType":"address"}],"anonymous":false},{"type":"event","name":"PeerSet","inputs":[{"name":"eid","type":"uint32","indexed":false,"internalType":"uint32"},{"name":"peer","type":"bytes32","indexed":false,"internalType":"bytes32"}],"anonymous":false},{"type":"event","name":"PreCrimeSet","inputs":[{"name":"preCrimeAddress","type":"address","indexed":false,"internalType":"address"}],"anonymous":false},{"type":"event","name":"Transfer","inputs":[{"name":"from","type":"address","indexed":true,"internalType":"address"},{"name":"to","type":"address","indexed":true,"internalType":"address"},{"name":"tokenId","type":"uint256","indexed":true,"internalType":"uint256"}],"anonymous":false},{"type":"error","name":"ERC721IncorrectOwner","inputs":[{"name":"sender","type":"address","internalType":"address"},{"name":"tokenId","type":"uint256","internalType":"uint256"},{"name":"owner","type":"address","internalType":"address"}]},{"type":"error","name":"ERC721InsufficientApproval","inputs":[{"name":"operator","type":"address","internalType":"address"},{"name":"tokenId","type":"uint256","internalType":"uint256"}]},{"type":"error","name":"ERC721InvalidApprover","inputs":[{"name":"approver","type":"address","internalType":"address"}]},{"type":"error","name":"ERC721InvalidOperator","inputs":[{"name":"operator","type":"address","internalType":"address"}]},{"type":"error","name":"ERC721InvalidOwner","inputs":[{"name":"owner","type":"address","internalType":"address"}]},{"type":"error","name":"ERC721InvalidReceiver","inputs":[{"name":"receiver","type":"address","internalType":"address"}]},{"type":"error","name":"ERC721InvalidSender","inputs":[{"name":"sender","type":"address","internalType":"address"}]},{"type":"error","name":"ERC721NonexistentToken","inputs":[{"name":"tokenId","type":"uint256","internalType":"uint256"}]},{"type":"error","name":"InvalidDelegate","inputs":[]},{"type":"error","name":"InvalidEndpointCall","inputs":[]},{"type":"error","name":"InvalidOptions","inputs":[{"name":"options","type":"bytes","internalType":"bytes"}]},{"type":"error","name":"InvalidReceiver","inputs":[]},{"type":"error","name":"LzTokenUnavailable","inputs":[]},{"type":"error","name":"NoPeer","inputs":[{"name":"eid","type":"uint32","internalType":"uint32"}]},{"type":"error","name":"NotEnoughNative","inputs":[{"name":"msgValue","type":"uint256","internalType":"uint256"}]},{"type":"error","name":"OnlyEndpoint","inputs":[{"name":"addr","type":"address","internalType":"address"}]},{"type":"error","name":"OnlyNFTOwner","inputs":[{"name":"caller","type":"address","internalType":"address"},{"name":"owner","type":"address","internalType":"address"}]},{"type":"error","name":"OnlyPeer","inputs":[{"name":"eid","type":"uint32","internalType":"uint32"},{"name":"sender","type":"bytes32","internalType":"bytes32"}]},{"type":"error","name":"OnlySelf","inputs":[]},{"type":"error","name":"OwnableInvalidOwner","inputs":[{"name":"owner","type":"address","internalType":"address"}]},{"type":"error","name":"OwnableUnauthorizedAccount","inputs":[{"name":"account","type":"address","internalType":"address"}]},{"type":"error","name":"SafeERC20FailedOperation","inputs":[{"name":"token","type":"address","internalType":"address"}]},{"type":"error","name":"SimulationResult","inputs":[{"name":"result","type":"bytes","internalType":"bytes"}]}],"bytecode":{"object":"0x60a060405234801561000f575f5ffd5b50604051615f9d380380615f9d8339818101604052810190610031919061037b565b6040518060400160405280601881526020017f577261707065642047616c6163746963204b69747469657300000000000000008152506040518060400160405280600781526020017f77474b495454590000000000000000000000000000000000000000000000000081525083838383838381818181845f73ffffffffffffffffffffffffffffffffffffffff168173ffffffffffffffffffffffffffffffffffffffff1603610118575f6040517f1e4fbdf700000000000000000000000000000000000000000000000000000000815260040161010f91906103c8565b60405180910390fd5b6101278161025c60201b60201c565b508173ffffffffffffffffffffffffffffffffffffffff1660808173ffffffffffffffffffffffffffffffffffffffff16815250505f73ffffffffffffffffffffffffffffffffffffffff168173ffffffffffffffffffffffffffffffffffffffff16036101c1576040517fb586360400000000000000000000000000000000000000000000000000000000815260040160405180910390fd5b60805173ffffffffffffffffffffffffffffffffffffffff1663ca5eb5e1826040518263ffffffff1660e01b81526004016101fc91906103c8565b5f604051808303815f87803b158015610213575f5ffd5b505af1158015610225573d5f5f3e3d5ffd5b50505050505050505050816005908161023e919061061e565b50806006908161024e919061061e565b5050505050505050506106ed565b5f5f5f9054906101000a900473ffffffffffffffffffffffffffffffffffffffff169050815f5f6101000a81548173ffffffffffffffffffffffffffffffffffffffff021916908373ffffffffffffffffffffffffffffffffffffffff1602179055508173ffffffffffffffffffffffffffffffffffffffff168173ffffffffffffffffffffffffffffffffffffffff167f8be0079c531659141344cd1fd0a4f28419497f9722a3daafe3b4186f6b6457e060405160405180910390a35050565b5f5ffd5b5f73ffffffffffffffffffffffffffffffffffffffff82169050919050565b5f61034a82610321565b9050919050565b61035a81610340565b8114610364575f5ffd5b50565b5f8151905061037581610351565b92915050565b5f5f604083850312156103915761039061031d565b5b5f61039e85828601610367565b92505060206103af85828601610367565b9150509250929050565b6103c281610340565b82525050565b5f6020820190506103db5f8301846103b9565b92915050565b5f81519050919050565b7f4e487b71000000000000000000000000000000000000000000000000000000005f52604160045260245ffd5b7f4e487b71000000000000000000000000000000000000000000000000000000005f52602260045260245ffd5b5f600282049050600182168061045c57607f821691505b60208210810361046f5761046e610418565b5b50919050565b5f819050815f5260205f209050919050565b5f6020601f8301049050919050565b5f82821b905092915050565b5f600883026104d17fffffffffffffffffffffffffffffffffffffffffffffffffffffffffffffffff82610496565b6104db8683610496565b95508019841693508086168417925050509392505050565b5f819050919050565b5f819050919050565b5f61051f61051a610515846104f3565b6104fc565b6104f3565b9050919050565b5f819050919050565b61053883610505565b61054c61054482610526565b8484546104a2565b825550505050565b5f5f905090565b610563610554565b61056e81848461052f565b505050565b5b81811015610591576105865f8261055b565b600181019050610574565b5050565b601f8211156105d6576105a781610475565b6105b084610487565b810160208510156105bf578190505b6105d36105cb85610487565b830182610573565b50505b505050565b5f82821c905092915050565b5f6105f65f19846008026105db565b1980831691505092915050565b5f61060e83836105e7565b9150826002028217905092915050565b610627826103e1565b67ffffffffffffffff8111156106405761063f6103eb565b5b61064a8254610445565b610655828285610595565b5f60209050601f831160018114610686575f8415610674578287015190505b61067e8582610603565b8655506106e5565b601f19841661069486610475565b5f5b828110156106bb57848901518255600182019150602085019450602081019050610696565b868310156106d857848901516106d4601f8916826105e7565b8355505b6001600288020188555050505b505050505050565b6080516158676107365f395f8181610c30015281816110850152818161184c01528181611d63015281816120e901528181612a0e015281816130a7015261319f01526158675ff3fe608060405260043610610266575f3560e01c806382413eac11610143578063bc70b354116100b5578063d045a0dc11610079578063d045a0dc14610942578063d42438851461095e578063e985e9c514610986578063f2fde38b146109c2578063fc0c546a146109ea578063ff7bd03d14610a1457610266565b8063bc70b3541461084a578063bd815db014610886578063c6414e7b146108a2578063c87b56dd146108de578063ca5eb5e11461091a57610266565b8063a72f5dd811610107578063a72f5dd81461073f578063b21a33e41461076a578063b731ea0a14610794578063b88d4fde146107be578063b98bd070146107e6578063bb0b6a531461080e57610266565b806382413eac1461065d5780638da5cb5b1461069957806395d89b41146106c35780639f68b964146106ed578063a22cb4651461071757610266565b806342842e0e116101dc5780635e280f11116101a05780635e280f11146105415780636352211e1461056b5780636fc1b31e146105a757806370a08231146105cf578063715018a61461060b5780637d25a05e1461062157610266565b806342842e0e1461044f57806352ae2879146104775780635535d461146104a157806355f804b3146104dd5780635a0dfe4d1461050557610266565b806313137d651161022e57806313137d651461035e57806317442b701461037a5780631f5e1334146103a557806321eb730b146103cf57806323b872dd146103ff5780633400288b1461042757610266565b806301ffc9a71461026a57806306fdde03146102a6578063081812fc146102d0578063095ea7b31461030c578063111ecdad14610334575b5f5ffd5b348015610275575f5ffd5b50610290600480360381019061028b9190613745565b610a50565b60405161029d919061378a565b60405180910390f35b3480156102b1575f5ffd5b506102ba610b31565b6040516102c79190613813565b60405180910390f35b3480156102db575f5ffd5b506102f660048036038101906102f19190613866565b610bc1565b60405161030391906138d0565b60405180910390f35b348015610317575f5ffd5b50610332600480360381019061032d9190613913565b610bdc565b005b34801561033f575f5ffd5b50610348610bf2565b60405161035591906138d0565b60405180910390f35b61037860048036038101906103739190613a07565b610c17565b005b348015610385575f5ffd5b5061038e610d37565b60405161039c929190613ae0565b60405180910390f35b3480156103b0575f5ffd5b506103b9610d45565b6040516103c69190613b23565b60405180910390f35b6103e960048036038101906103e49190613b78565b610d4a565b6040516103f69190613c7e565b60405180910390f35b34801561040a575f5ffd5b5061042560048036038101906104209190613c97565b610e23565b005b348015610432575f5ffd5b5061044d60048036038101906104489190613d20565b610f22565b005b34801561045a575f5ffd5b5061047560048036038101906104709190613c97565b610f38565b005b348015610482575f5ffd5b5061048b610f57565b60405161049891906138d0565b60405180910390f35b3480156104ac575f5ffd5b506104c760048036038101906104c29190613d88565b610f5e565b6040516104d49190613e18565b60405180910390f35b3480156104e8575f5ffd5b5061050360048036038101906104fe9190613e8d565b611004565b005b348015610510575f5ffd5b5061052b60048036038101906105269190613d20565b61105a565b604051610538919061378a565b60405180910390f35b34801561054c575f5ffd5b50610555611083565b6040516105629190613f33565b60405180910390f35b348015610576575f5ffd5b50610591600480360381019061058c9190613866565b6110a7565b60405161059e91906138d0565b60405180910390f35b3480156105b2575f5ffd5b506105cd60048036038101906105c89190613f4c565b6110b8565b005b3480156105da575f5ffd5b506105f560048036038101906105f09190613f4c565b61113a565b6040516106029190613f86565b60405180910390f35b348015610616575f5ffd5b5061061f6111f0565b005b34801561062c575f5ffd5b5061064760048036038101906106429190613d20565b611203565b6040516106549190613f9f565b60405180910390f35b348015610668575f5ffd5b50610683600480360381019061067e9190613fb8565b61120d565b604051610690919061378a565b60405180910390f35b3480156106a4575f5ffd5b506106ad611247565b6040516106ba91906138d0565b60405180910390f35b3480156106ce575f5ffd5b506106d761126e565b6040516106e49190613813565b60405180910390f35b3480156106f8575f5ffd5b506107016112fe565b60405161070e919061378a565b60405180910390f35b348015610722575f5ffd5b5061073d60048036038101906107389190614053565b611305565b005b34801561074a575f5ffd5b5061075361131b565b6040516107619291906140a0565b60405180910390f35b348015610775575f5ffd5b5061077e611348565b60405161078b9190613b23565b60405180910390f35b34801561079f575f5ffd5b506107a861134d565b6040516107b591906138d0565b60405180910390f35b3480156107c9575f5ffd5b506107e460048036038101906107df91906141ef565b611372565b005b3480156107f1575f5ffd5b5061080c600480360381019061080791906142c4565b611397565b005b348015610819575f5ffd5b50610834600480360381019061082f919061430f565b6113b8565b6040516108419190614349565b60405180910390f35b348015610855575f5ffd5b50610870600480360381019061086b9190614362565b6113cd565b60405161087d9190613e18565b60405180910390f35b6108a0600480360381019061089b9190614428565b6115cf565b005b3480156108ad575f5ffd5b506108c860048036038101906108c39190614473565b61179e565b6040516108d591906144fa565b60405180910390f35b3480156108e9575f5ffd5b5061090460048036038101906108ff9190613866565b6117dc565b6040516109119190613813565b60405180910390f35b348015610925575f5ffd5b50610940600480360381019061093b9190613f4c565b611842565b005b61095c60048036038101906109579190613a07565b6118d3565b005b348015610969575f5ffd5b50610984600480360381019061097f9190613f4c565b611950565b005b348015610991575f5ffd5b506109ac60048036038101906109a79190614513565b6119d2565b6040516109b9919061378a565b60405180910390f35b3480156109cd575f5ffd5b506109e860048036038101906109e39190613f4c565b611a60565b005b3480156109f5575f5ffd5b506109fe611ae4565b604051610a0b91906138d0565b60405180910390f35b348015610a1f575f5ffd5b50610a3a6004803603810190610a359190614551565b611aeb565b604051610a47919061378a565b60405180910390f35b5f7f80ac58cd000000000000000000000000000000000000000000000000000000007bffffffffffffffffffffffffffffffffffffffffffffffffffffffff1916827bffffffffffffffffffffffffffffffffffffffffffffffffffffffff19161480610b1a57507f5b5e139f000000000000000000000000000000000000000000000000000000007bffffffffffffffffffffffffffffffffffffffffffffffffffffffff1916827bffffffffffffffffffffffffffffffffffffffffffffffffffffffff1916145b80610b2a5750610b2982611b28565b5b9050919050565b606060058054610b40906145a9565b80601f0160208091040260200160405190810160405280929190818152602001828054610b6c906145a9565b8015610bb75780601f10610b8e57610100808354040283529160200191610bb7565b820191905f5260205f20905b815481529060010190602001808311610b9a57829003601f168201915b5050505050905090565b5f610bcb82611b91565b50610bd582611c17565b9050919050565b610bee8282610be9611c50565b611c57565b5050565b60045f9054906101000a900473ffffffffffffffffffffffffffffffffffffffff1681565b3373ffffffffffffffffffffffffffffffffffffffff167f000000000000000000000000000000000000000000000000000000000000000073ffffffffffffffffffffffffffffffffffffffff1614610ca757336040517f91ac5e4f000000000000000000000000000000000000000000000000000000008152600401610c9e91906138d0565b60405180910390fd5b8660200135610cc6885f016020810190610cc1919061430f565b611c69565b14610d1f57865f016020810190610cdd919061430f565b87602001356040517fc26bebcc000000000000000000000000000000000000000000000000000000008152600401610d169291906145e8565b60405180910390fd5b610d2e87878787878787611cda565b50505050505050565b5f5f60016002915091509091565b600181565b610d52613698565b610d72338560400135865f016020810190610d6d919061430f565b611e5c565b5f5f610d7d86611eec565b91509150610daf865f016020810190610d96919061430f565b838388803603810190610da99190614664565b886120b6565b92503373ffffffffffffffffffffffffffffffffffffffff16835f01517f986156872b2ee0022b9585231dbbfde457f87f8a16b6c45e1a81c54c4ad8351f885f016020810190610dff919061430f565b8960400135604051610e1292919061468f565b60405180910390a350509392505050565b5f73ffffffffffffffffffffffffffffffffffffffff168273ffffffffffffffffffffffffffffffffffffffff1603610e93575f6040517f64a0ae92000000000000000000000000000000000000000000000000000000008152600401610e8a91906138d0565b60405180910390fd5b5f610ea68383610ea1611c50565b6121cc565b90508373ffffffffffffffffffffffffffffffffffffffff168173ffffffffffffffffffffffffffffffffffffffff1614610f1c578382826040517f64283d7b000000000000000000000000000000000000000000000000000000008152600401610f13939291906146b6565b60405180910390fd5b50505050565b610f2a6123d7565b610f34828261245e565b5050565b610f5283838360405180602001604052805f815250611372565b505050565b5f30905090565b6003602052815f5260405f20602052805f5260405f205f91509150508054610f85906145a9565b80601f0160208091040260200160405190810160405280929190818152602001828054610fb1906145a9565b8015610ffc5780601f10610fd357610100808354040283529160200191610ffc565b820191905f5260205f20905b815481529060010190602001808311610fdf57829003601f168201915b505050505081565b61100c6123d7565b8181600b918261101d92919061488c565b507ff9c7803e94e0d3c02900d8a90893a6d5e90dd04d32a4cfe825520f82bf9f32f6600b60405161104e91906149da565b60405180910390a15050565b5f8160015f8563ffffffff1663ffffffff1681526020019081526020015f205414905092915050565b7f000000000000000000000000000000000000000000000000000000000000000081565b5f6110b182611b91565b9050919050565b6110c06123d7565b8060045f6101000a81548173ffffffffffffffffffffffffffffffffffffffff021916908373ffffffffffffffffffffffffffffffffffffffff1602179055507ff0be4f1e87349231d80c36b33f9e8639658eeaf474014dee15a3e6a4d44141978160405161112f91906138d0565b60405180910390a150565b5f5f73ffffffffffffffffffffffffffffffffffffffff168273ffffffffffffffffffffffffffffffffffffffff16036111ab575f6040517f89c62b640000000000000000000000000000000000000000000000000000000081526004016111a291906138d0565b60405180910390fd5b60085f8373ffffffffffffffffffffffffffffffffffffffff1673ffffffffffffffffffffffffffffffffffffffff1681526020019081526020015f20549050919050565b6111f86123d7565b6112015f6124bd565b565b5f5f905092915050565b5f3073ffffffffffffffffffffffffffffffffffffffff168273ffffffffffffffffffffffffffffffffffffffff16149050949350505050565b5f5f5f9054906101000a900473ffffffffffffffffffffffffffffffffffffffff16905090565b60606006805461127d906145a9565b80601f01602080910402602001604051908101604052809291908181526020018280546112a9906145a9565b80156112f45780601f106112cb576101008083540402835291602001916112f4565b820191905f5260205f20905b8154815290600101906020018083116112d757829003601f168201915b5050505050905090565b5f5f905090565b611317611310611c50565b838361257e565b5050565b5f5f7f23e18da6000000000000000000000000000000000000000000000000000000006001915091509091565b600281565b60025f9054906101000a900473ffffffffffffffffffffffffffffffffffffffff1681565b61137d848484610e23565b611391611388611c50565b858585856126e7565b50505050565b61139f6123d7565b6113b48282906113af9190614b28565b612893565b5050565b6001602052805f5260405f205f915090505481565b60605f60035f8763ffffffff1663ffffffff1681526020019081526020015f205f8661ffff1661ffff1681526020019081526020015f20805461140f906145a9565b80601f016020809104026020016040519081016040528092919081815260200182805461143b906145a9565b80156114865780601f1061145d57610100808354040283529160200191611486565b820191905f5260205f20905b81548152906001019060200180831161146957829003601f168201915b505050505090505f8151036114e15783838080601f0160208091040260200160405190810160405280939291908181526020018383808284375f81840152601f19601f820116905080830192505050505050509150506115c7565b5f84849050036114f457809150506115c7565b600284849050106115885761154b84848080601f0160208091040260200160405190810160405280939291908181526020018383808284375f81840152601f19601f820116905080830192505050505050506129ab565b808484600290809261155f93929190614b44565b60405160200161157193929190614bdc565b6040516020818303038152906040529150506115c7565b83836040517f9a6d49cd0000000000000000000000000000000000000000000000000000000081526004016115be929190614c2d565b60405180910390fd5b949350505050565b5f5f90505b828290508110156116f157368383838181106115f3576115f2614c4f565b5b90506020028101906116059190614c88565b905061162a815f015f01602081019061161e919061430f565b825f016020013561105a565b61163457506116e4565b3073ffffffffffffffffffffffffffffffffffffffff1663d045a0dc8260c00135835f018460a001358580610100019061166e9190614cb0565b8760e00160208101906116819190613f4c565b888061012001906116929190614cb0565b6040518963ffffffff1660e01b81526004016116b49796959493929190614de5565b5f604051808303818588803b1580156116cb575f5ffd5b505af11580156116dd573d5f5f3e3d5ffd5b5050505050505b80806001019150506115d4565b503373ffffffffffffffffffffffffffffffffffffffff16638e9e70996040518163ffffffff1660e01b81526004015f60405180830381865afa15801561173a573d5f5f3e3d5ffd5b505050506040513d5f823e3d601f19601f820116820180604052508101906117629190614eb6565b6040517f8351eea70000000000000000000000000000000000000000000000000000000081526004016117959190613e18565b60405180910390fd5b6117a66136c7565b5f5f6117b185611eec565b915091506117d2855f0160208101906117ca919061430f565b838387612a04565b9250505092915050565b60606117e782611b91565b505f6117f1612ae5565b90505f81511161180f5760405180602001604052805f81525061183a565b8061181984612b75565b60405160200161182a929190614f37565b6040516020818303038152906040525b915050919050565b61184a6123d7565b7f000000000000000000000000000000000000000000000000000000000000000073ffffffffffffffffffffffffffffffffffffffff1663ca5eb5e1826040518263ffffffff1660e01b81526004016118a391906138d0565b5f604051808303815f87803b1580156118ba575f5ffd5b505af11580156118cc573d5f5f3e3d5ffd5b5050505050565b3073ffffffffffffffffffffffffffffffffffffffff163373ffffffffffffffffffffffffffffffffffffffff1614611938576040517f14d4a4e800000000000000000000000000000000000000000000000000000000815260040160405180910390fd5b61194787878787878787612c3f565b50505050505050565b6119586123d7565b8060025f6101000a81548173ffffffffffffffffffffffffffffffffffffffff021916908373ffffffffffffffffffffffffffffffffffffffff1602179055507fd48d879cef83a1c0bdda516f27b13ddb1b3f8bbac1c9e1511bb2a659c2427760816040516119c791906138d0565b60405180910390a150565b5f600a5f8473ffffffffffffffffffffffffffffffffffffffff1673ffffffffffffffffffffffffffffffffffffffff1681526020019081526020015f205f8373ffffffffffffffffffffffffffffffffffffffff1673ffffffffffffffffffffffffffffffffffffffff1681526020019081526020015f205f9054906101000a900460ff16905092915050565b611a686123d7565b5f73ffffffffffffffffffffffffffffffffffffffff168173ffffffffffffffffffffffffffffffffffffffff1603611ad8575f6040517f1e4fbdf7000000000000000000000000000000000000000000000000000000008152600401611acf91906138d0565b60405180910390fd5b611ae1816124bd565b50565b5f30905090565b5f816020013560015f845f016020810190611b06919061430f565b63ffffffff1663ffffffff1681526020019081526020015f2054149050919050565b5f7f01ffc9a7000000000000000000000000000000000000000000000000000000007bffffffffffffffffffffffffffffffffffffffffffffffffffffffff1916827bffffffffffffffffffffffffffffffffffffffffffffffffffffffff1916149050919050565b5f5f611b9c83612c57565b90505f73ffffffffffffffffffffffffffffffffffffffff168173ffffffffffffffffffffffffffffffffffffffff1603611c0e57826040517f7e273289000000000000000000000000000000000000000000000000000000008152600401611c059190613f86565b60405180910390fd5b80915050919050565b5f60095f8381526020019081526020015f205f9054906101000a900473ffffffffffffffffffffffffffffffffffffffff169050919050565b5f33905090565b611c648383836001612c90565b505050565b5f5f60015f8463ffffffff1663ffffffff1681526020019081526020015f205490505f5f1b8103611cd157826040517ff6ff4fb7000000000000000000000000000000000000000000000000000000008152600401611cc89190614f5a565b60405180910390fd5b80915050919050565b5f611ced611ce88787612e4f565b612e79565b90505f611cfa8787612e84565b9050611d1882828b5f016020810190611d13919061430f565b612eb4565b611d228787612ec3565b15611def575f611d5f8a6040016020810190611d3e9190614f73565b8b5f016020810190611d50919061430f565b611d5a8b8b612ed6565b612f38565b90507f000000000000000000000000000000000000000000000000000000000000000073ffffffffffffffffffffffffffffffffffffffff16637cb59012848b5f856040518563ffffffff1660e01b8152600401611dc09493929190614fd7565b5f604051808303815f87803b158015611dd7575f5ffd5b505af1158015611de9573d5f5f3e3d5ffd5b50505050505b8173ffffffffffffffffffffffffffffffffffffffff16887f7883fa30ea56937810e36990b0bbb8d629d0cf59f68baf8431ff657cebe7eef58b5f016020810190611e3a919061430f565b84604051611e4992919061468f565b60405180910390a3505050505050505050565b611e65826110a7565b73ffffffffffffffffffffffffffffffffffffffff168373ffffffffffffffffffffffffffffffffffffffff1614611ede5782611ea1836110a7565b6040517f8684e2b6000000000000000000000000000000000000000000000000000000008152600401611ed5929190615021565b60405180910390fd5b611ee782612f67565b505050565b6060805f5f1b836020013503611f2e576040517f1e4ec46b00000000000000000000000000000000000000000000000000000000815260040160405180910390fd5b5f611f9384602001358560400135868060800190611f4c9190614cb0565b8080601f0160208091040260200160405190810160405280939291908181526020018383808284375f81840152601f19601f82011690508083019250505050505050612fe9565b80925081945050505f81611fa8576001611fab565b60025b9050611fd8855f016020810190611fc2919061430f565b82878060600190611fd39190614cb0565b6113cd565b92505f60045f9054906101000a900473ffffffffffffffffffffffffffffffffffffffff1690505f73ffffffffffffffffffffffffffffffffffffffff168173ffffffffffffffffffffffffffffffffffffffff16146120ae578073ffffffffffffffffffffffffffffffffffffffff1663043a78eb86866040518363ffffffff1660e01b815260040161206d929190615048565b602060405180830381865afa158015612088573d5f5f3e3d5ffd5b505050506040513d601f19601f820116820180604052508101906120ac9190615091565b505b505050915091565b6120be613698565b5f6120cb845f0151613057565b90505f846020015111156120e7576120e684602001516130a4565b5b7f000000000000000000000000000000000000000000000000000000000000000073ffffffffffffffffffffffffffffffffffffffff16632637a450826040518060a001604052808b63ffffffff1681526020016121448c611c69565b81526020018a81526020018981526020015f8960200151111515815250866040518463ffffffff1660e01b815260040161217f92919061518d565b60806040518083038185885af115801561219b573d5f5f3e3d5ffd5b50505050506040513d601f19601f820116820180604052508101906121c091906152a5565b91505095945050505050565b5f5f6121d784612c57565b90505f73ffffffffffffffffffffffffffffffffffffffff168373ffffffffffffffffffffffffffffffffffffffff1614612218576122178184866131ea565b5b5f73ffffffffffffffffffffffffffffffffffffffff168173ffffffffffffffffffffffffffffffffffffffff16146122a3576122575f855f5f612c90565b600160085f8373ffffffffffffffffffffffffffffffffffffffff1673ffffffffffffffffffffffffffffffffffffffff1681526020019081526020015f205f82825403925050819055505b5f73ffffffffffffffffffffffffffffffffffffffff168573ffffffffffffffffffffffffffffffffffffffff161461232257600160085f8773ffffffffffffffffffffffffffffffffffffffff1673ffffffffffffffffffffffffffffffffffffffff1681526020019081526020015f205f82825401925050819055505b8460075f8681526020019081526020015f205f6101000a81548173ffffffffffffffffffffffffffffffffffffffff021916908373ffffffffffffffffffffffffffffffffffffffff160217905550838573ffffffffffffffffffffffffffffffffffffffff168273ffffffffffffffffffffffffffffffffffffffff167fddf252ad1be2c89b69c2b068fc378daa952ba7f163c4a11628f55a4df523b3ef60405160405180910390a4809150509392505050565b6123df611c50565b73ffffffffffffffffffffffffffffffffffffffff166123fd611247565b73ffffffffffffffffffffffffffffffffffffffff161461245c57612420611c50565b6040517f118cdaa700000000000000000000000000000000000000000000000000000000815260040161245391906138d0565b60405180910390fd5b565b8060015f8463ffffffff1663ffffffff1681526020019081526020015f20819055507f238399d427b947898edb290f5ff0f9109849b1c3ba196a42e35f00c50a54b98b82826040516124b19291906145e8565b60405180910390a15050565b5f5f5f9054906101000a900473ffffffffffffffffffffffffffffffffffffffff169050815f5f6101000a81548173ffffffffffffffffffffffffffffffffffffffff021916908373ffffffffffffffffffffffffffffffffffffffff1602179055508173ffffffffffffffffffffffffffffffffffffffff168173ffffffffffffffffffffffffffffffffffffffff167f8be0079c531659141344cd1fd0a4f28419497f9722a3daafe3b4186f6b6457e060405160405180910390a35050565b5f73ffffffffffffffffffffffffffffffffffffffff168273ffffffffffffffffffffffffffffffffffffffff16036125ee57816040517f5b08ba180000000000000000000000000000000000000000000000000000000081526004016125e591906138d0565b60405180910390fd5b80600a5f8573ffffffffffffffffffffffffffffffffffffffff1673ffffffffffffffffffffffffffffffffffffffff1681526020019081526020015f205f8473ffffffffffffffffffffffffffffffffffffffff1673ffffffffffffffffffffffffffffffffffffffff1681526020019081526020015f205f6101000a81548160ff0219169083151502179055508173ffffffffffffffffffffffffffffffffffffffff168373ffffffffffffffffffffffffffffffffffffffff167f17307eab39ab6107e8899845ad3d59bd9653f200f220920489ca2b5937696c31836040516126da919061378a565b60405180910390a3505050565b5f8373ffffffffffffffffffffffffffffffffffffffff163b111561288c578273ffffffffffffffffffffffffffffffffffffffff1663150b7a02868685856040518563ffffffff1660e01b815260040161274594939291906152d0565b6020604051808303815f875af192505050801561278057506040513d601f19601f8201168201806040525081019061277d919061532e565b60015b612801573d805f81146127ae576040519150601f19603f3d011682016040523d82523d5f602084013e6127b3565b606091505b505f8151036127f957836040517f64a0ae920000000000000000000000000000000000000000000000000000000081526004016127f091906138d0565b60405180910390fd5b805160208201fd5b63150b7a0260e01b7bffffffffffffffffffffffffffffffffffffffffffffffffffffffff1916817bffffffffffffffffffffffffffffffffffffffffffffffffffffffff19161461288a57836040517f64a0ae9200000000000000000000000000000000000000000000000000000000815260040161288191906138d0565b60405180910390fd5b505b5050505050565b5f5f90505b8151811015612970576128c88282815181106128b7576128b6614c4f565b5b6020026020010151604001516129ab565b8181815181106128db576128da614c4f565b5b60200260200101516040015160035f8484815181106128fd576128fc614c4f565b5b60200260200101515f015163ffffffff1663ffffffff1681526020019081526020015f205f84848151811061293557612934614c4f565b5b60200260200101516020015161ffff1661ffff1681526020019081526020015f20908161296291906153b1565b508080600101915050612898565b507fbe4864a8e820971c0247f5992e2da559595f7bf076a21cb5928d443d2a13b674816040516129a09190615597565b60405180910390a150565b5f60028201519050600361ffff168161ffff1614612a0057816040517f9a6d49cd0000000000000000000000000000000000000000000000000000000081526004016129f79190613e18565b60405180910390fd5b5050565b612a0c6136c7565b7f000000000000000000000000000000000000000000000000000000000000000073ffffffffffffffffffffffffffffffffffffffff1663ddc28c586040518060a001604052808863ffffffff168152602001612a6889611c69565b8152602001878152602001868152602001851515815250306040518363ffffffff1660e01b8152600401612a9d92919061518d565b6040805180830381865afa158015612ab7573d5f5f3e3d5ffd5b505050506040513d601f19601f82011682018060405250810190612adb91906155b7565b9050949350505050565b6060600b8054612af4906145a9565b80601f0160208091040260200160405190810160405280929190818152602001828054612b20906145a9565b8015612b6b5780601f10612b4257610100808354040283529160200191612b6b565b820191905f5260205f20905b815481529060010190602001808311612b4e57829003601f168201915b5050505050905090565b60605f6001612b83846132ad565b0190505f8167ffffffffffffffff811115612ba157612ba06140cb565b5b6040519080825280601f01601f191660200182016040528015612bd35781602001600182028036833780820191505090505b5090505f82602083010190505b600115612c34578080600190039150507f3031323334353637383961626364656600000000000000000000000000000000600a86061a8153600a8581612c2957612c286155e2565b5b0494505f8503612be0575b819350505050919050565b612c4e87878787878787611cda565b50505050505050565b5f60075f8381526020019081526020015f205f9054906101000a900473ffffffffffffffffffffffffffffffffffffffff169050919050565b8080612cc857505f73ffffffffffffffffffffffffffffffffffffffff168273ffffffffffffffffffffffffffffffffffffffff1614155b15612dfa575f612cd784611b91565b90505f73ffffffffffffffffffffffffffffffffffffffff168373ffffffffffffffffffffffffffffffffffffffff1614158015612d4157508273ffffffffffffffffffffffffffffffffffffffff168173ffffffffffffffffffffffffffffffffffffffff1614155b8015612d545750612d5281846119d2565b155b15612d9657826040517fa9fbf51f000000000000000000000000000000000000000000000000000000008152600401612d8d91906138d0565b60405180910390fd5b8115612df857838573ffffffffffffffffffffffffffffffffffffffff168273ffffffffffffffffffffffffffffffffffffffff167f8c5be1e5ebec7d5bd14f71427d1e84f3dd0314c0f7b2291e5b200ac8c7c3b92560405160405180910390a45b505b8360095f8581526020019081526020015f205f6101000a81548173ffffffffffffffffffffffffffffffffffffffff021916908373ffffffffffffffffffffffffffffffffffffffff16021790555050505050565b5f82825f90602060ff1692612e6693929190614b44565b90612e719190615619565b905092915050565b5f815f1c9050919050565b5f8282602060ff1690604060ff1692612e9f93929190614b44565b90612eaa9190615619565b5f1c905092915050565b612ebe83836133fe565b505050565b5f604060ff168383905011905092915050565b60608282604060ff16908092612eee93929190614b44565b8080601f0160208091040260200160405190810160405280939291908181526020018383808284375f81840152601f19601f82011690508083019250505050505050905092915050565b6060838383604051602001612f4f939291906156df565b60405160208183030381529060405290509392505050565b5f612f735f835f6121cc565b90505f73ffffffffffffffffffffffffffffffffffffffff168173ffffffffffffffffffffffffffffffffffffffff1603612fe557816040517f7e273289000000000000000000000000000000000000000000000000000000008152600401612fdc9190613f86565b60405180910390fd5b5050565b60605f5f83511190508061301e57848460405160200161300a929190615757565b60405160208183030381529060405261304d565b8484613029336134f1565b8560405160200161303d9493929190615782565b6040516020818303038152906040525b9150935093915050565b5f81341461309c57346040517f9f7041200000000000000000000000000000000000000000000000000000000081526004016130939190613f86565b60405180910390fd5b819050919050565b5f7f000000000000000000000000000000000000000000000000000000000000000073ffffffffffffffffffffffffffffffffffffffff1663e4fe1d946040518163ffffffff1660e01b8152600401602060405180830381865afa15801561310e573d5f5f3e3d5ffd5b505050506040513d601f19601f8201168201806040525081019061313291906157df565b90505f73ffffffffffffffffffffffffffffffffffffffff168173ffffffffffffffffffffffffffffffffffffffff1603613199576040517f5373352a00000000000000000000000000000000000000000000000000000000815260040160405180910390fd5b6131e6337f0000000000000000000000000000000000000000000000000000000000000000848473ffffffffffffffffffffffffffffffffffffffff16613512909392919063ffffffff16565b5050565b6131f5838383613567565b6132a8575f73ffffffffffffffffffffffffffffffffffffffff168373ffffffffffffffffffffffffffffffffffffffff160361326957806040517f7e2732890000000000000000000000000000000000000000000000000000000081526004016132609190613f86565b60405180910390fd5b81816040517f177e802f00000000000000000000000000000000000000000000000000000000815260040161329f92919061580a565b60405180910390fd5b505050565b5f5f5f90507a184f03e93ff9f4daa797ed6e38ed64bf6a1f0100000000000000008310613309577a184f03e93ff9f4daa797ed6e38ed64bf6a1f01000000000000000083816132ff576132fe6155e2565b5b0492506040810190505b6d04ee2d6d415b85acef81000000008310613346576d04ee2d6d415b85acef8100000000838161333c5761333b6155e2565b5b0492506020810190505b662386f26fc10000831061337557662386f26fc10000838161336b5761336a6155e2565b5b0492506010810190505b6305f5e100831061339e576305f5e1008381613394576133936155e2565b5b0492506008810190505b61271083106133c35761271083816133b9576133b86155e2565b5b0492506004810190505b606483106133e657606483816133dc576133db6155e2565b5b0492506002810190505b600a83106133f5576001810190505b80915050919050565b5f73ffffffffffffffffffffffffffffffffffffffff168273ffffffffffffffffffffffffffffffffffffffff160361346e575f6040517f64a0ae9200000000000000000000000000000000000000000000000000000000815260040161346591906138d0565b60405180910390fd5b5f61347a83835f6121cc565b90505f73ffffffffffffffffffffffffffffffffffffffff168173ffffffffffffffffffffffffffffffffffffffff16146134ec575f6040517f73c6ac6e0000000000000000000000000000000000000000000000000000000081526004016134e391906138d0565b60405180910390fd5b505050565b5f8173ffffffffffffffffffffffffffffffffffffffff165f1b9050919050565b613520848484846001613627565b61356157836040517f5274afe700000000000000000000000000000000000000000000000000000000815260040161355891906138d0565b60405180910390fd5b50505050565b5f5f73ffffffffffffffffffffffffffffffffffffffff168373ffffffffffffffffffffffffffffffffffffffff161415801561361e57508273ffffffffffffffffffffffffffffffffffffffff168473ffffffffffffffffffffffffffffffffffffffff1614806135df57506135de84846119d2565b5b8061361d57508273ffffffffffffffffffffffffffffffffffffffff1661360583611c17565b73ffffffffffffffffffffffffffffffffffffffff16145b5b90509392505050565b5f5f6323b872dd60e01b9050604051815f525f1960601c87166004525f1960601c86166024528460445260205f60645f5f8c5af1925060015f51148316613685578383151615613679573d5f823e3d81fd5b5f883b113d1516831692505b806040525f606052505095945050505050565b60405180606001604052805f81526020015f67ffffffffffffffff1681526020016136c16136c7565b81525090565b60405180604001604052805f81526020015f81525090565b5f604051905090565b5f5ffd5b5f5ffd5b5f7fffffffff0000000000000000000000000000000000000000000000000000000082169050919050565b613724816136f0565b811461372e575f5ffd5b50565b5f8135905061373f8161371b565b92915050565b5f6020828403121561375a576137596136e8565b5b5f61376784828501613731565b91505092915050565b5f8115159050919050565b61378481613770565b82525050565b5f60208201905061379d5f83018461377b565b92915050565b5f81519050919050565b5f82825260208201905092915050565b8281835e5f83830152505050565b5f601f19601f8301169050919050565b5f6137e5826137a3565b6137ef81856137ad565b93506137ff8185602086016137bd565b613808816137cb565b840191505092915050565b5f6020820190508181035f83015261382b81846137db565b905092915050565b5f819050919050565b61384581613833565b811461384f575f5ffd5b50565b5f813590506138608161383c565b92915050565b5f6020828403121561387b5761387a6136e8565b5b5f61388884828501613852565b91505092915050565b5f73ffffffffffffffffffffffffffffffffffffffff82169050919050565b5f6138ba82613891565b9050919050565b6138ca816138b0565b82525050565b5f6020820190506138e35f8301846138c1565b92915050565b6138f2816138b0565b81146138fc575f5ffd5b50565b5f8135905061390d816138e9565b92915050565b5f5f60408385031215613929576139286136e8565b5b5f613936858286016138ff565b925050602061394785828601613852565b9150509250929050565b5f5ffd5b5f6060828403121561396a57613969613951565b5b81905092915050565b5f819050919050565b61398581613973565b811461398f575f5ffd5b50565b5f813590506139a08161397c565b92915050565b5f5ffd5b5f5ffd5b5f5ffd5b5f5f83601f8401126139c7576139c66139a6565b5b8235905067ffffffffffffffff8111156139e4576139e36139aa565b5b602083019150836001820283011115613a00576139ff6139ae565b5b9250929050565b5f5f5f5f5f5f5f60e0888a031215613a2257613a216136e8565b5b5f613a2f8a828b01613955565b9750506060613a408a828b01613992565b965050608088013567ffffffffffffffff811115613a6157613a606136ec565b5b613a6d8a828b016139b2565b955095505060a0613a808a828b016138ff565b93505060c088013567ffffffffffffffff811115613aa157613aa06136ec565b5b613aad8a828b016139b2565b925092505092959891949750929550565b5f67ffffffffffffffff82169050919050565b613ada81613abe565b82525050565b5f604082019050613af35f830185613ad1565b613b006020830184613ad1565b9392505050565b5f61ffff82169050919050565b613b1d81613b07565b82525050565b5f602082019050613b365f830184613b14565b92915050565b5f60c08284031215613b5157613b50613951565b5b81905092915050565b5f60408284031215613b6f57613b6e613951565b5b81905092915050565b5f5f5f60808486031215613b8f57613b8e6136e8565b5b5f84013567ffffffffffffffff811115613bac57613bab6136ec565b5b613bb886828701613b3c565b9350506020613bc986828701613b5a565b9250506060613bda868287016138ff565b9150509250925092565b613bed81613973565b82525050565b613bfc81613abe565b82525050565b613c0b81613833565b82525050565b604082015f820151613c255f850182613c02565b506020820151613c386020850182613c02565b50505050565b608082015f820151613c525f850182613be4565b506020820151613c656020850182613bf3565b506040820151613c786040850182613c11565b50505050565b5f608082019050613c915f830184613c3e565b92915050565b5f5f5f60608486031215613cae57613cad6136e8565b5b5f613cbb868287016138ff565b9350506020613ccc868287016138ff565b9250506040613cdd86828701613852565b9150509250925092565b5f63ffffffff82169050919050565b613cff81613ce7565b8114613d09575f5ffd5b50565b5f81359050613d1a81613cf6565b92915050565b5f5f60408385031215613d3657613d356136e8565b5b5f613d4385828601613d0c565b9250506020613d5485828601613992565b9150509250929050565b613d6781613b07565b8114613d71575f5ffd5b50565b5f81359050613d8281613d5e565b92915050565b5f5f60408385031215613d9e57613d9d6136e8565b5b5f613dab85828601613d0c565b9250506020613dbc85828601613d74565b9150509250929050565b5f81519050919050565b5f82825260208201905092915050565b5f613dea82613dc6565b613df48185613dd0565b9350613e048185602086016137bd565b613e0d816137cb565b840191505092915050565b5f6020820190508181035f830152613e308184613de0565b905092915050565b5f5f83601f840112613e4d57613e4c6139a6565b5b8235905067ffffffffffffffff811115613e6a57613e696139aa565b5b602083019150836001820283011115613e8657613e856139ae565b5b9250929050565b5f5f60208385031215613ea357613ea26136e8565b5b5f83013567ffffffffffffffff811115613ec057613ebf6136ec565b5b613ecc85828601613e38565b92509250509250929050565b5f819050919050565b5f613efb613ef6613ef184613891565b613ed8565b613891565b9050919050565b5f613f0c82613ee1565b9050919050565b5f613f1d82613f02565b9050919050565b613f2d81613f13565b82525050565b5f602082019050613f465f830184613f24565b92915050565b5f60208284031215613f6157613f606136e8565b5b5f613f6e848285016138ff565b91505092915050565b613f8081613833565b82525050565b5f602082019050613f995f830184613f77565b92915050565b5f602082019050613fb25f830184613ad1565b92915050565b5f5f5f5f60a08587031215613fd057613fcf6136e8565b5b5f613fdd87828801613955565b945050606085013567ffffffffffffffff811115613ffe57613ffd6136ec565b5b61400a878288016139b2565b9350935050608061401d878288016138ff565b91505092959194509250565b61403281613770565b811461403c575f5ffd5b50565b5f8135905061404d81614029565b92915050565b5f5f60408385031215614069576140686136e8565b5b5f614076858286016138ff565b92505060206140878582860161403f565b9150509250929050565b61409a816136f0565b82525050565b5f6040820190506140b35f830185614091565b6140c06020830184613ad1565b9392505050565b5f5ffd5b7f4e487b71000000000000000000000000000000000000000000000000000000005f52604160045260245ffd5b614101826137cb565b810181811067ffffffffffffffff821117156141205761411f6140cb565b5b80604052505050565b5f6141326136df565b905061413e82826140f8565b919050565b5f67ffffffffffffffff82111561415d5761415c6140cb565b5b614166826137cb565b9050602081019050919050565b828183375f83830152505050565b5f61419361418e84614143565b614129565b9050828152602081018484840111156141af576141ae6140c7565b5b6141ba848285614173565b509392505050565b5f82601f8301126141d6576141d56139a6565b5b81356141e6848260208601614181565b91505092915050565b5f5f5f5f60808587031215614207576142066136e8565b5b5f614214878288016138ff565b9450506020614225878288016138ff565b935050604061423687828801613852565b925050606085013567ffffffffffffffff811115614257576142566136ec565b5b614263878288016141c2565b91505092959194509250565b5f5f83601f840112614284576142836139a6565b5b8235905067ffffffffffffffff8111156142a1576142a06139aa565b5b6020830191508360208202830111156142bd576142bc6139ae565b5b9250929050565b5f5f602083850312156142da576142d96136e8565b5b5f83013567ffffffffffffffff8111156142f7576142f66136ec565b5b6143038582860161426f565b92509250509250929050565b5f60208284031215614324576143236136e8565b5b5f61433184828501613d0c565b91505092915050565b61434381613973565b82525050565b5f60208201905061435c5f83018461433a565b92915050565b5f5f5f5f6060858703121561437a576143796136e8565b5b5f61438787828801613d0c565b945050602061439887828801613d74565b935050604085013567ffffffffffffffff8111156143b9576143b86136ec565b5b6143c5878288016139b2565b925092505092959194509250565b5f5f83601f8401126143e8576143e76139a6565b5b8235905067ffffffffffffffff811115614405576144046139aa565b5b602083019150836020820283011115614421576144206139ae565b5b9250929050565b5f5f6020838503121561443e5761443d6136e8565b5b5f83013567ffffffffffffffff81111561445b5761445a6136ec565b5b614467858286016143d3565b92509250509250929050565b5f5f60408385031215614489576144886136e8565b5b5f83013567ffffffffffffffff8111156144a6576144a56136ec565b5b6144b285828601613b3c565b92505060206144c38582860161403f565b9150509250929050565b604082015f8201516144e15f850182613c02565b5060208201516144f46020850182613c02565b50505050565b5f60408201905061450d5f8301846144cd565b92915050565b5f5f60408385031215614529576145286136e8565b5b5f614536858286016138ff565b9250506020614547858286016138ff565b9150509250929050565b5f60608284031215614566576145656136e8565b5b5f61457384828501613955565b91505092915050565b7f4e487b71000000000000000000000000000000000000000000000000000000005f52602260045260245ffd5b5f60028204905060018216806145c057607f821691505b6020821081036145d3576145d261457c565b5b50919050565b6145e281613ce7565b82525050565b5f6040820190506145fb5f8301856145d9565b614608602083018461433a565b9392505050565b5f5ffd5b5f5ffd5b5f6040828403121561462c5761462b61460f565b5b6146366040614129565b90505f61464584828501613852565b5f83015250602061465884828501613852565b60208301525092915050565b5f60408284031215614679576146786136e8565b5b5f61468684828501614617565b91505092915050565b5f6040820190506146a25f8301856145d9565b6146af6020830184613f77565b9392505050565b5f6060820190506146c95f8301866138c1565b6146d66020830185613f77565b6146e360408301846138c1565b949350505050565b5f82905092915050565b5f819050815f5260205f209050919050565b5f6020601f8301049050919050565b5f82821b905092915050565b5f600883026147517fffffffffffffffffffffffffffffffffffffffffffffffffffffffffffffffff82614716565b61475b8683614716565b95508019841693508086168417925050509392505050565b5f61478d61478861478384613833565b613ed8565b613833565b9050919050565b5f819050919050565b6147a683614773565b6147ba6147b282614794565b848454614722565b825550505050565b5f5f905090565b6147d16147c2565b6147dc81848461479d565b505050565b5b818110156147ff576147f45f826147c9565b6001810190506147e2565b5050565b601f82111561484457614815816146f5565b61481e84614707565b8101602085101561482d578190505b61484161483985614707565b8301826147e1565b50505b505050565b5f82821c905092915050565b5f6148645f1984600802614849565b1980831691505092915050565b5f61487c8383614855565b9150826002028217905092915050565b61489683836146eb565b67ffffffffffffffff8111156148af576148ae6140cb565b5b6148b982546145a9565b6148c4828285614803565b5f601f8311600181146148f1575f84156148df578287013590505b6148e98582614871565b865550614950565b601f1984166148ff866146f5565b5f5b8281101561492657848901358255600182019150602085019450602081019050614901565b86831015614943578489013561493f601f891682614855565b8355505b6001600288020188555050505b50505050505050565b5f8154614965816145a9565b61496f81866137ad565b9450600182165f8114614989576001811461499f576149d1565b60ff1983168652811515602002860193506149d1565b6149a8856146f5565b5f5b838110156149c9578154818901526001820191506020810190506149aa565b808801955050505b50505092915050565b5f6020820190508181035f8301526149f28184614959565b905092915050565b5f67ffffffffffffffff821115614a1457614a136140cb565b5b602082029050602081019050919050565b5f60608284031215614a3a57614a3961460f565b5b614a446060614129565b90505f614a5384828501613d0c565b5f830152506020614a6684828501613d74565b602083015250604082013567ffffffffffffffff811115614a8a57614a89614613565b5b614a96848285016141c2565b60408301525092915050565b5f614ab4614aaf846149fa565b614129565b90508083825260208201905060208402830185811115614ad757614ad66139ae565b5b835b81811015614b1e57803567ffffffffffffffff811115614afc57614afb6139a6565b5b808601614b098982614a25565b85526020850194505050602081019050614ad9565b5050509392505050565b5f614b34368484614aa2565b905092915050565b5f5ffd5b5f5ffd5b5f5f85851115614b5757614b56614b3c565b5b83861115614b6857614b67614b40565b5b6001850283019150848603905094509492505050565b5f81905092915050565b5f614b9282613dc6565b614b9c8185614b7e565b9350614bac8185602086016137bd565b80840191505092915050565b5f614bc38385614b7e565b9350614bd0838584614173565b82840190509392505050565b5f614be78286614b88565b9150614bf4828486614bb8565b9150819050949350505050565b5f614c0c8385613dd0565b9350614c19838584614173565b614c22836137cb565b840190509392505050565b5f6020820190508181035f830152614c46818486614c01565b90509392505050565b7f4e487b71000000000000000000000000000000000000000000000000000000005f52603260045260245ffd5b5f5ffd5b5f5ffd5b5f5ffd5b5f8235600161014003833603038112614ca457614ca3614c7c565b5b80830191505092915050565b5f5f83356001602003843603038112614ccc57614ccb614c7c565b5b80840192508235915067ffffffffffffffff821115614cee57614ced614c80565b5b602083019250600182023603831315614d0a57614d09614c84565b5b509250929050565b5f614d206020840184613d0c565b905092915050565b614d3181613ce7565b82525050565b5f614d456020840184613992565b905092915050565b614d5681613abe565b8114614d60575f5ffd5b50565b5f81359050614d7181614d4d565b92915050565b5f614d856020840184614d63565b905092915050565b60608201614d9d5f830183614d12565b614da95f850182614d28565b50614db76020830183614d37565b614dc46020850182613be4565b50614dd26040830183614d77565b614ddf6040850182613bf3565b50505050565b5f60e082019050614df85f83018a614d8d565b614e05606083018961433a565b8181036080830152614e18818789614c01565b9050614e2760a08301866138c1565b81810360c0830152614e3a818486614c01565b905098975050505050505050565b5f614e5a614e5584614143565b614129565b905082815260208101848484011115614e7657614e756140c7565b5b614e818482856137bd565b509392505050565b5f82601f830112614e9d57614e9c6139a6565b5b8151614ead848260208601614e48565b91505092915050565b5f60208284031215614ecb57614eca6136e8565b5b5f82015167ffffffffffffffff811115614ee857614ee76136ec565b5b614ef484828501614e89565b91505092915050565b5f81905092915050565b5f614f11826137a3565b614f1b8185614efd565b9350614f2b8185602086016137bd565b80840191505092915050565b5f614f428285614f07565b9150614f4e8284614f07565b91508190509392505050565b5f602082019050614f6d5f8301846145d9565b92915050565b5f60208284031215614f8857614f876136e8565b5b5f614f9584828501614d63565b91505092915050565b5f819050919050565b5f614fc1614fbc614fb784614f9e565b613ed8565b613b07565b9050919050565b614fd181614fa7565b82525050565b5f608082019050614fea5f8301876138c1565b614ff7602083018661433a565b6150046040830185614fc8565b81810360608301526150168184613de0565b905095945050505050565b5f6040820190506150345f8301856138c1565b61504160208301846138c1565b9392505050565b5f6040820190508181035f8301526150608185613de0565b905081810360208301526150748184613de0565b90509392505050565b5f8151905061508b81614029565b92915050565b5f602082840312156150a6576150a56136e8565b5b5f6150b38482850161507d565b91505092915050565b5f82825260208201905092915050565b5f6150d682613dc6565b6150e081856150bc565b93506150f08185602086016137bd565b6150f9816137cb565b840191505092915050565b61510d81613770565b82525050565b5f60a083015f8301516151285f860182614d28565b50602083015161513b6020860182613be4565b506040830151848203604086015261515382826150cc565b9150506060830151848203606086015261516d82826150cc565b91505060808301516151826080860182615104565b508091505092915050565b5f6040820190508181035f8301526151a58185615113565b90506151b460208301846138c1565b9392505050565b5f815190506151c98161397c565b92915050565b5f815190506151dd81614d4d565b92915050565b5f815190506151f18161383c565b92915050565b5f6040828403121561520c5761520b61460f565b5b6152166040614129565b90505f615225848285016151e3565b5f830152506020615238848285016151e3565b60208301525092915050565b5f608082840312156152595761525861460f565b5b6152636060614129565b90505f615272848285016151bb565b5f830152506020615285848285016151cf565b6020830152506040615299848285016151f7565b60408301525092915050565b5f608082840312156152ba576152b96136e8565b5b5f6152c784828501615244565b91505092915050565b5f6080820190506152e35f8301876138c1565b6152f060208301866138c1565b6152fd6040830185613f77565b818103606083015261530f8184613de0565b905095945050505050565b5f815190506153288161371b565b92915050565b5f60208284031215615343576153426136e8565b5b5f6153508482850161531a565b91505092915050565b5f819050815f5260205f209050919050565b601f8211156153ac5761537d81615359565b61538684614707565b81016020851015615395578190505b6153a96153a185614707565b8301826147e1565b50505b505050565b6153ba82613dc6565b67ffffffffffffffff8111156153d3576153d26140cb565b5b6153dd82546145a9565b6153e882828561536b565b5f60209050601f831160018114615419575f8415615407578287015190505b6154118582614871565b865550615478565b601f19841661542786615359565b5f5b8281101561544e57848901518255600182019150602085019450602081019050615429565b8683101561546b5784890151615467601f891682614855565b8355505b6001600288020188555050505b505050505050565b5f81519050919050565b5f82825260208201905092915050565b5f819050602082019050919050565b6154b281613b07565b82525050565b5f606083015f8301516154cd5f860182614d28565b5060208301516154e060208601826154a9565b50604083015184820360408601526154f882826150cc565b9150508091505092915050565b5f61551083836154b8565b905092915050565b5f602082019050919050565b5f61552e82615480565b615538818561548a565b93508360208202850161554a8561549a565b805f5b8581101561558557848403895281516155668582615505565b945061557183615518565b925060208a0199505060018101905061554d565b50829750879550505050505092915050565b5f6020820190508181035f8301526155af8184615524565b905092915050565b5f604082840312156155cc576155cb6136e8565b5b5f6155d9848285016151f7565b91505092915050565b7f4e487b71000000000000000000000000000000000000000000000000000000005f52601260045260245ffd5b5f82905092915050565b5f615624838361560f565b8261562f8135613973565b9250602082101561566f5761566a7fffffffffffffffffffffffffffffffffffffffffffffffffffffffffffffffff83602003600802614716565b831692505b505092915050565b5f8160c01b9050919050565b5f61568d82615677565b9050919050565b6156a56156a082613abe565b615683565b82525050565b5f8160e01b9050919050565b5f6156c1826156ab565b9050919050565b6156d96156d482613ce7565b6156b7565b82525050565b5f6156ea8286615694565b6008820191506156fa82856156c8565b60048201915061570a8284614b88565b9150819050949350505050565b5f819050919050565b61573161572c82613973565b615717565b82525050565b5f819050919050565b61575161574c82613833565b615737565b82525050565b5f6157628285615720565b6020820191506157728284615740565b6020820191508190509392505050565b5f61578d8287615720565b60208201915061579d8286615740565b6020820191506157ad8285615720565b6020820191506157bd8284614b88565b915081905095945050505050565b5f815190506157d9816138e9565b92915050565b5f602082840312156157f4576157f36136e8565b5b5f615801848285016157cb565b91505092915050565b5f60408201905061581d5f8301856138c1565b61582a6020830184613f77565b939250505056fea264697066735822122096ba22794746555f3a7ebf4bf30ccd876ce894a4d611416b8b1add07b546945e64736f6c634300081e0033","linkReferences":{}},"methodIdentifiers":{"SEND()":"1f5e1334","SEND_AND_COMPOSE()":"b21a33e4","allowInitializePath((uint32,bytes32,uint64))":"ff7bd03d","approvalRequired()":"9f68b964","approve(address,uint256)":"095ea7b3","balanceOf(address)":"70a08231","combineOptions(uint32,uint16,bytes)":"bc70b354","endpoint()":"5e280f11","enforcedOptions(uint32,uint16)":"5535d461","getApproved(uint256)":"081812fc","isApprovedForAll(address,address)":"e985e9c5","isComposeMsgSender((uint32,bytes32,uint64),bytes,address)":"82413eac","isPeer(uint32,bytes32)":"5a0dfe4d","lzReceive((uint32,bytes32,uint64),bytes32,bytes,address,bytes)":"13137d65","lzReceiveAndRevert(((uint32,bytes32,uint64),uint32,address,bytes32,uint256,address,bytes,bytes)[])":"bd815db0","lzReceiveSimulate((uint32,bytes32,uint64),bytes32,bytes,address,bytes)":"d045a0dc","msgInspector()":"111ecdad","name()":"06fdde03","nextNonce(uint32,bytes32)":"7d25a05e","oApp()":"52ae2879","oAppVersion()":"17442b70","onftVersion()":"a72f5dd8","owner()":"8da5cb5b","ownerOf(uint256)":"6352211e","peers(uint32)":"bb0b6a53","preCrime()":"b731ea0a","quoteSend((uint32,bytes32,uint256,bytes,bytes,bytes),bool)":"c6414e7b","renounceOwnership()":"715018a6","safeTransferFrom(address,address,uint256)":"42842e0e","safeTransferFrom(address,address,uint256,bytes)":"b88d4fde","send((uint32,bytes32,uint256,bytes,bytes,bytes),(uint256,uint256),address)":"21eb730b","setApprovalForAll(address,bool)":"a22cb465","setBaseURI(string)":"55f804b3","setDelegate(address)":"ca5eb5e1","setEnforcedOptions((uint32,uint16,bytes)[])":"b98bd070","setMsgInspector(address)":"6fc1b31e","setPeer(uint32,bytes32)":"3400288b","setPreCrime(address)":"d4243885","supportsInterface(bytes4)":"01ffc9a7","symbol()":"95d89b41","token()":"fc0c546a","tokenURI(uint256)":"c87b56dd","transferFrom(address,address,uint256)":"23b872dd","transferOwnership(address)":"f2fde38b"},"id":73}